:020000040800F2
:100000009017002065020008071A0008B5190008BB
:10001000051A0008150500085D1D00080000000015
:10002000000000000000000000000000CD010008FA
:100030005B0500080000000011020008091A000812
:100040007F0200087F0200087F0200087F0200088C
:100050007F0200087F0200087F0200087F0200087C
:100060007F0200087F0200087F02000819050008CF
:100070007F0200087F020008250500087F020008B3
:100080007F0200087F0200087F0200087F0200084C
:100090007F0200087F0200087F0200087F0200083C
:1000A0007F020008A11A00087F0200087F020008F2
:1000B0007F0200087F0200087F0200087F0200081C
:1000C0007F0200087F0200087F0200087F0200080C
:1000D0007F0200087F0200087F0200087F020008FC
:1000E0007F0200087F0200087F0200087F020008EC
:1000F0007F0200087F0200087F0200087F020008DC
:100100007F0200087F0200087F0200087F020008CB
:100110007F0200087F0200087F0200087F020008BB
:100120007F0200087F0200087F0200087F020008AB
:1001300000F002F800F03AF80AA090E8000C8244BF
:100140008344AAF10107DA4501D100F02FF8AFF29C
:10015000090EBAE80F0013F0010F18BFFB1A43F0A5
:10016000010318472C2800004C280000103A24BF37
:1001700078C878C1FAD8520724BF30C830C144BF0C
:1001800004680C607047000000230024002500264E
:10019000103A28BF78C1FBD8520728BF30C148BFEA
:1001A0000B6070471FB51FBD10B510BD00F0D6F82D
:1001B0001146FFF7F7FF01F0F5FD00F0F4F803B486
:1001C000FFF7F2FF03BC00F0FBF80000224B1968B8
:1001D0000868B0E8F00F80F30988BFF36F8F4FF025
:1001E000000080F311884EF00D0E704700000000F3
:1001F00006480068006880F3088862B661B6BFF3FD
:100200004F8FBFF36F8F00DF00BF00BF08ED00E02E
:10021000EFF30980BFF36F8F0F4B1A6820E9F00FDF
:10022000106008B54FF0500080F31188BFF34F8F76
:10023000BFF36F8F02F0B4F94FF0000080F3118824
:10024000BDE8084019680868B0E8F00F80F3098835
:10025000BFF36F8F704700BF1C000020EFF30580D5
:10026000704700000948804709480047FEE7FEE75D
:10027000FEE7FEE7FEE7FEE7FEE7FEE7FEE7FEE756
:1002800004480549054A064B704700009D1A0008BE
:1002900031010008901100209017002090130020D9
:1002A0009013002010B5203AC0F00B80B1E8185030
:1002B000203AA0E81850B1E81850A0E81850BFF450
:1002C000F5AF5FEA027C24BFB1E81850A0E81850EF
:1002D00044BF18C918C0BDE810405FEA827C24BF43
:1002E00051F8043B40F8043B08BF7047D20728BFD1
:1002F00031F8023B48BF11F8012B28BF20F8023B20
:1003000048BF00F8012B70474FF0000200B51346BC
:1003100094469646203922BFA0E80C50A0E80C5025
:10032000B1F12001BFF4F7AF090728BFA0E80C50D6
:1003300048BF0CC05DF804EB890028BF40F8042BCF
:1003400008BF704748BF20F8022B11F0804F18BF3C
:1003500000F8012B7047704770477047754600F0F2
:100360002BF8AE4605006946534620F00700854647
:1003700018B020B5FFF784FFBDE820404FF000061D
:100380004FF000074FF000084FF0000B21F007017D
:10039000AC46ACE8C009ACE8C009ACE8C009ACE8C0
:1003A000C0098D46704710B50446AFF30080204663
:1003B000BDE81040FFF703BF004870473011002030
:1003C00001491820ABBEFEE726000200704700007E
:1003D00070B5044600688168C943C90717D18168B0
:1003E00021F00101816000F031FD05460AE000BF07
:1003F00000F02CFD401B022804D920688068C0430F
:10040000C00706D020688068C043C007F0D0002035
:1004100070BDA06A40F01000A062E06A40F00100E8
:10042000E062012070BD10B50146406A826A12F098
:10043000500F05D0006A026BBDE810400846104717
:10044000816A41F40071816201688968C1F34241A7
:1004500007290CD1017B51B9816A21F48071816235
:10046000816AC90403D4816A41F00101816200F00C
:10047000F5F810BD10B5406A816A41F04001816213
:10048000C16A41F00401C16200F0EAF810BD10B584
:10049000406A00F0E4F810BDF8B500260446009666
:1004A00000688168C943C9072DD0816841F0010106
:1004B0008160164816490068B0FBF1F000E0401E6C
:1004C00000900028FBD100F0C1FC054616E000BFFB
:1004D00000F0BCFC401B022810D920688068C04393
:1004E000C0070BD0A06A40F01000A062E06A40F0A4
:1004F0000100E06284F824600120F8BD2068806873
:10050000C043C007E4D10020F8BD0000180000205F
:1005100040420F00FEE70000014800F001BA000071
:100520001C010020014800F0FBB900006001002020
:1005300030B590F840500124AC40C56B6C60046845
:1005400063604368102B036803D099600068C26041
:1005500030BD9A600068C16030BD704772B6FEE77A
:10056000F8B50024009490F824202546012A12D0E2
:10057000012280F824204A681F23072A0DD206682A
:10058000776B521E02EB820293409F430B689340AD
:100590001F43776319E00220F8BD06680D2A0AD2CE
:1005A000376BD21F02EB820293409F430B6893404C
:1005B0001F43376309E0F76A0D3A02EB820293406A
:1005C0009F430B6893401F43F7620A68072306683E
:1005D0000A2A0AD3F7680A3A02EB420293409F4381
:1005E0008B6893401F43F76008E0376902EB4202D3
:1005F00093409F438B6893401F4337610A68102ADA
:1006000001D0112A20D1124B02689A4217D1936867
:100610001B0219D4936843F40003936009681029FE
:1006200012D10C490C4A0968B1FBF2F101EB8101CE
:10063000490000E0491E00910029FBD104E0816AD5
:1006400041F020018162012480F824502046F8BD49
:10065000002401401800002040420F0070477047FE
:10066000704700002DE9F04104004FF000057FD0F5
:10067000A06A002628B9E66284F82460204600F0CB
:1006800081F82046FFF7A4FEA16AC90600D420B174
:10069000A06A40F01000A0626AE0A16A21F48851CB
:1006A00041F00201A162334923688B42E16904D120
:1006B000B1F5402F01D14FF40021277B4FF4807C0E
:1006C00041EA470261680A43A168614508D00129EF
:1006D00006D0002194F814E0BEF1010F02D00AE028
:1006E0006146F7E7C7B1A76A47F02007A762E76A44
:1006F00047F00107E7625F6827F469470F435F60CF
:10070000236899681C4F394011439960A16861457D
:100710000BD0012909D00CE0DFF860E0A7690EEBEF
:1007200047370F4347F40061E5E7218A0D05A5F53A
:1007300080152168CB6A23F470032B43CB622168B8
:1007400089680F4B1940914208D1E662A16A21F0F5
:10075000020141F00101A162BDE8F081A06A20F030
:10076000020040F01000A062E06A40F00100E06288
:100770000120F1E7003C0140FDF7E1FF00E0FFFF51
:10078000FE0E1FFF70B586B0002506460095019548
:100790000295039500681A4988422ED11949886943
:1007A00040F400708861886900F4007004908869E2
:1007B00040F0040088618869694600F004000490F4
:1007C00001200090032001900F4800F043FA104CE4
:1007D0000E48C4E900058020C4E9025040002061B1
:1007E000C00060612020C4E90605204600F0BCF985
:1007F00008B1FFF7B3FE3462666206B070BD000058
:10080000002401400010024000080140080002409E
:100810001C0100202DE9F047894604463B49006849
:100820003B4F0E1D9046884201D0B84207D1306838
:1008300010F4702F03D001252846BDE8F08794F806
:10084000240001280CD0012084F824002046FFF762
:1008500023FE05004FF0000004D084F82400EBE7ED
:100860000220EAE7A16A40F60162914341F48071F7
:10087000A1622168B94218D1326812F4702F14D0E5
:10088000A16A41F48011A1623168490505D5A16AC8
:1008900021F4005141F48051A162A16AC9040AD532
:1008A000E16A21F00601E16206E0A26A22F4801208
:1008B000A2624968E9E7E06284F82400216A1548E9
:1008C0008862216A1448C862216A14480863216852
:1008D0006FF0020008602068816841F480718160D7
:1008E000216843464A464C31206A00F07BF9206873
:1008F0008168C1F342410729816803D041F4801126
:10090000816099E741F4A001FAE70000002401406A
:1009100000280140270400088F040008750400081F
:100920002DE9F05FC16B0A6801680B68046C4FF039
:10093000040808FA04F8844D844E854FDFF814C289
:10094000DFF81492DFF814A2DFF814B2DFF814E233
:1009500018EA020F65D05FEA437862D50A6892060A
:1009600003D40A6822F004020A60DFF8F0814FF431
:100970008062016808F1140813011402414524D96A
:10098000A9420DD0B1420FD0B9421AD0614515D05D
:10099000494515D0514501D1120312E0594501D105
:1009A00004220EE0714501D140220AE06D4D14355C
:1009B000A94206D06B4A2832914201D11A4600E082
:1009C00022466749091F0A6029E0A94213D0B142B3
:1009D00015D0B94220D061451BD049451BD05145A7
:1009E00002D14FF4800217E0414502D14FF08062FE
:1009F00012E0594501D104220EE0714501D1402297
:100A00000AE0584D1435A94206D0564A2832914280
:100A100001D11A4600E022464B4908394A60C16AB2
:100A200071E04FF0020808FA04F818EA020F70D0DB
:100A30005FEA83786DD50A68920606D40A6822F0C8
:100A40000A020A60012180F82110DFF810814FF4BA
:100A50000072016808F1140813011402414524D9F9
:100A6000A9420DD0B1420FD0B9421AD0614515D07C
:100A7000494515D0514501D1120312E0594501D124
:100A800002220EE0714501D120220AE0354D1435D5
:100A9000A94206D0334A2832914201D11A4600E0D9
:100AA00022462F49091F0A6029E0A94213D0B1420A
:100AB00015D0B94220D061451BD049451BD05145C6
:100AC00002D14FF4001217E0414502D14FF00072FD
:100AD00012E0594501D102220EE0714501D12022D8
:100AE0000AE0204D1435A94206D01E4A2832914210
:100AF00001D11A4600E02246134908394A60002114
:100B000080F82010816A00291CD0BDE8F05F0847FA
:100B1000FFE70825A540154214D01A0712D50A6828
:100B200022F00E020A6090F84020C36B012101FA06
:100B300002F25A60816380F82110002180F82010B1
:100B4000016BE0E7BDE8F09F080002401C00024096
:100B50003000024044000240580002406C00024055
:100B6000080402401C04024030B560B11A4B026810
:100B700014219A4209D2194B1344B3FBF1F18900B5
:100B8000016417490AE0012030BD134B5B42134456
:100B9000B3FBF1F1890001640F490839C1630221F7
:100BA00080F82110136843F6F0718B43F0E90114CB
:100BB0002143D0E902452C43214304692143446980
:100BC00021438469214319431160002141630122BB
:100BD00042770177084630BD08040240F8FFFDBFA8
:100BE0000000024070B5044690F82000002501285E
:100BF0000CD0012084F8200094F821600020012E00
:100C000006D084F820000225284670BD022070BD61
:100C1000022684F82160A0632068066826F0010699
:100C200006602046FFF784FCE06A0028206801681F
:100C300002D041F00E0106E021F0040101602068BD
:100C4000016841F00A0101602068016841F001017A
:100C50000160D9E72DE9F84FDFF8C8910024A9F128
:100C6000040B23460F2709F1040AABF1040ED1E06F
:100C70000125A54006EA0502AA4276D1DFF8A8C1FF
:100C80004E68A6EB0C0866452BD00DDC032E34D045
:100C900005DC36B3012E19D0022E2FD11BE0112E08
:100CA00016D0122E2AD119E0B8F5881F19D006DC0B
:100CB000B8F5803F15D0B8F5801F1FD111E0B8F509
:100CC000001F0ED0B8F5041F18D10AE0CB6815E05C
:100CD000CB681B1D12E0CB6808330FE0CB680C33E8
:100CE0000CE08B682BB1012B4FF0080303D045615A
:100CF00004E0042302E0056100E00023FF2A01D89C
:100D0000064601E000F104064FEA840501D9A5F189
:100D10002005D6F8008007FA05FC28EA0C0803FA3B
:100D200005F548EA0508C6F800804D68ED0070D565
:100D30003E4DAE6946F00106AE61AD6924F0030692
:100D400005F0010500953A4D06EB050CDCF808505E
:100D5000A607360F07FA06F825EA0805DFF8D4805B
:100D6000404503D14FF0000825E052E0DFF8C8808D
:100D7000404502D14FF001081DE0DFF8C08040453A
:100D800002D14FF0020816E0DFF8B480404502D1EE
:100D90004FF003080FE0DFF8AC80404502D14FF080
:100DA000040808E0DFF8A080404502D14FF00508B4
:100DB00001E04FF0060808FA06F848EA0508CCF802
:100DC00008804D68D9F80060ED024D4601D5164304
:100DD00000E096432E604D68DAF80060AD0255469B
:100DE00001D5164300E096432E604D68DBF80060A5
:100DF000AD035D4601D5164300E096432E604D6875
:100E0000DEF80060ED03754601D5164300E0964319
:100E10002E60641C0A681646E2407FF429AFBDE8E4
:100E2000F88F00000804014000001110001002407B
:100E30000000014000080140000C0140001001408A
:100E40000014014000180140001C01400148806866
:100E5000704700000C0000200248816802781144AD
:100E6000816070470C000020074810B5016841F010
:100E700010010160032000F0A1F80F2000F006F837
:100E800000F04AF8002010BD0020024030B50546B1
:100E90001C4887B0816941F400618161806906A9BD
:100EA00000F40060009001A800F0A6F900F0D4F969
:100EB0001549164AB0FBF1F11548491E0260416020
:100EC00040F2E7320021C0E903218160816100F036
:100ED0008BFB040012D10E4800F0B4FB04000DD1CE
:100EE000192000F03DF8102D07D2002229461920C4
:100EF00000F044F80748056000E0012407B02046F0
:100F000030BD00000010024040420F00002C0140A4
:100F1000F8030020100000200F4808B5816941F057
:100F200001018161816901F001010091C16941F014
:100F30008051C161C069002200F0805000900F21F3
:100F4000901E00F01BF80548416821F0E06141F077
:100F50000071416008BD0000001002400000014027
:100F6000002809DB00F01F020121914040098000A8
:100F700000F1E020C0F8001170470000F0B40E4B03
:100F80001B680C46C3F30223C3F10705042D00D9E7
:100F90000425191D072901D2002300E0DB1E0126CC
:100FA00006FA05F1491E214099409E40761E1640E2
:100FB0003143F0BC00F0D3BE0CED00E0064900F078
:100FC000070208684FF6FF03184040EA0220034A70
:100FD00010430860704700000CED00E00000FA05C7
:100FE0002DE9F84305460078354CC00754D0E06938
:100FF0000026C00008D4E06940F08050E061E0695C
:10100000012600F0805000902E480168C90512D4D6
:101010000168804641F480710160FFF717FF0746C1
:1010200005E000BFFFF712FFC01B642823D8D8F8E3
:101030000000C005F6D5206A10F4407021D0A988C0
:1010400001F4407181421CD0206A1F49012220F422
:1010500040700A6000220A602062C00711D0FFF7CA
:10106000F5FE074641F2883808E000BFFFF7EEFEC4
:10107000C11B414502D90320BDE8F883206A8007DF
:10108000F4D5206A696820F44070084320621EB1DC
:10109000E06920F08050E0612878800705D560681D
:1010A000A96820F44040084360602878C00605D550
:1010B0006068696920F48000084360600020DBE715
:1010C0000010024000700040400442422DE9F04709
:1010D0000F46050061D0434E306800F00700B8426B
:1010E00009D2306820F0070038433060306800F0E3
:1010F0000700B84251D128683B4C810712D5400700
:1011000003D5606840F4E06060602878000703D58C
:10111000606840F4605060606068A96820F0F0008A
:10112000084360602878C00728D06868012810D07C
:101130002168022810D0890700292EDA616821F081
:10114000030101436160FFF781FE804641F2883967
:101150000DE021688903EFE78901EDE7FFF776FEEF
:10116000A0EB0801494502D90320BDE8F08760687B
:10117000696800F00C00B0EB810FEFD1306800F02F
:101180000700B8420BD9306820F0070038433060C0
:10119000306800F00700B84201D00120E5E7287868
:1011A000400705D56068E96820F4E06008436060A6
:1011B0002878000706D56068296920F4605040EA65
:1011C000C100606000F058F86168084AC1F303117B
:1011D000515CC8400649086006480068FFF756FEA3
:1011E0000020C2E70020024000100240462900080B
:1011F00018000020100000200F2202600C4A5368E3
:1012000003F003034360536803F0F0038360536803
:1012100003F4E063C36052684FF4E06303EAD20270
:1012200002610448006800F0070008607047000091
:101230000010024000200240044805490068496847
:10124000044AC1F30221515CC840704718000020D5
:101250000010024056290008044805490068496802
:10126000044AC1F3C221515CC840704718000020F5
:1012700000100240562900080E4A51680E4801F03D
:101280000C03042B11D0082B0FD10C48C1F383435E
:10129000C903C05C0AD55168084AC1F34041921E97
:1012A000515C054A5043B0FBF1F070470449484394
:1012B000704700000010024000127A003629000832
:1012C00000093D002DE9F84F040070D02078C04D92
:1012D000C00749D06868C0F38100012807D068685A
:1012E000C0F38100022809D16868C00306D52868C8
:1012F000800339D560680028E7D035E06068B0F534
:10130000803F0BD010B1B0F5A02F11D0286820F489
:1013100080302860286820F4802002E0286840F4AB
:1013200080302860606890B1FFF790FD06460AE0C3
:10133000286840F480202860F0E700BFFFF786FDB2
:10134000801B642873D828688003F7D50CE0FFF76A
:101350007DFD064605E000BFFFF778FD801B642891
:10136000F0D828688003F7D420789A4E80074FF091
:1013700001094FF0000839D5686810F00C0F07D04C
:101380006868C0F38100022809D16868C00306D4E8
:101390002868800714D52069012808D110E0206949
:1013A000B0B1C6F80090FFF751FD074605E00AE12D
:1013B000FFF74CFDC01B0228C4D828688007F7D56A
:1013C0002868616920F0F80040EAC10028600DE05B
:1013D000C6F80080FFF73AFD074604E0FFF736FD48
:1013E000C01B022823D828688007F7D4207800077C
:1013F0002CD57948A169D9B1C0F80090FFF726FD36
:10140000074604E0FFF722FDC01B02280FD8686AD8
:101410008007F7D571484FF4FA510068B0FBF1F03E
:10142000009000BF0098411E0091FAD20EE080E0CB
:10143000C0F80080FFF70AFD074604E0FFF706FD4D
:10144000C01B022875D8686A8007F7D42078400747
:1014500060D5E8690027C00008D4E86940F08050F2
:10146000E861E869012700F0805000905C4801685D
:10147000C90513D40168834641F480710160FFF708
:10148000E5FC824606E000BFFFF7E0FCA0EB0A00A7
:1014900064284ED8DBF80000C005F5D5E0680128C7
:1014A0000AD008B1052813D0286A20F0010028626C
:1014B000286A20F0040002E0286A40F00100286257
:1014C000E06841F2883B98B1FFF7C0FC82460BE030
:1014D000286A40F004002862EEE700BFFFF7B6FC80
:1014E000A0EB0A0159455AD8286A8007F6D50CE0C6
:1014F000FFF7ACFC824605E0FFF7A8FCA0EB0A0171
:1015000059454CD8286A8007F6D41FB1E86920F005
:101510008050E861E06988B36968C1F381010229FC
:1015200044D00228C6F8608004D0FFF78FFC044640
:1015300038E034E0FFF78AFC074604E0FFF786FC5A
:10154000C01B02282BD828688001F7D4206AB0F588
:10155000803F05D16868A16820F4003008436860C6
:10156000D4E908010843696821F4741108436860EC
:10157000C6F86090FFF76AFC044606E025E000BF6D
:10158000FFF764FC001B022809D828688001F7D502
:101590001BE000BFFFF75AFC001B022802D9032002
:1015A000BDE8F88F28688001F4D40EE00128F7D058
:1015B0006868226A00F48031914204D1616A00F4C3
:1015C0007010884201D00120EAE70020E8E700001F
:1015D00000100240000042428004424218000020F5
:1015E000007000407047704710B5040003D094F8B5
:1015F0003D0010B107E0012010BD002084F83C0040
:10160000204600F01EF8022084F83D00211D2068CD
:1016100000F04CFA012084F8460084F83E0084F87B
:101620003F0084F8400084F8410084F8420084F8C8
:10163000430084F8440084F8450084F83D0000200D
:1016400010BD704790F83D10012901D0012070476E
:10165000022180F83D100168CA6842F00102CA60A8
:1016600000680E4988420ED00D4988420BD0B0F177
:10167000804F08D00B49884205D00B49884202D0E0
:101680000A49884204D1816801F00701062903D084
:10169000016841F00101016000207047002C014009
:1016A000003401400004004000080040000C0040ED
:1016B000704770B50446006801694FF00005C943E2
:1016C000890715D4C168C943890711D4E91E01618E
:1016D00001202077206880698007204602D0FFF72C
:1016E000E7FF04E000F098F8204600F096F8257730
:1016F00020680169C943490717D4C168C94349072C
:1017000013D46FF004010161022020772068806902
:1017100010F4407F204602D0FFF7CAFF04E000F03B
:101720007BF8204600F079F8257720680169C943E5
:10173000090716D4C168C943090712D46FF008011C
:101740000161042020772068C0698007204602D00C
:10175000FFF7AEFF04E000F05FF8204600F05DF810
:10176000257720680169C943C90617D4C168C943F0
:10177000C90613D46FF0100101610820207720689A
:10178000C06910F4407F204602D0FFF791FF04E0CB
:1017900000F042F8204600F040F825772068016903
:1017A000C943C90708D1C168C943C90704D1891E03
:1017B0000161204600F032F820680169C94309063A
:1017C00009D4C168C943090605D46FF080010161DD
:1017D0002046FFF707FF20680169C943490609D47D
:1017E000C168C943490605D46FF040010161204634
:1017F00000F01EF820680169C94389060BD4C1684E
:10180000C943890607D46FF0200101612046BDE875
:101810007040FFF7E8BE70BD70477047006803492D
:10182000884201D1FFF718BB70470000002C01402F
:101830007047704770B5040004D094F8410000254B
:1018400010B106E0012070BD84F84050204600F041
:1018500023F8242084F841002068C16821F4005155
:10186000C160204600F01EFA2068016921F4904111
:1018700001612068416921F02A0141612068C16845
:1018800041F40051C1606564202084F8410084F86F
:1018900042006563002070BD70B586B00025064625
:1018A000009501950295039500681E49884237D13D
:1018B0001D49886940F480408861886900F480404F
:1018C0000490886940F0040088618869174C00F032
:1018D000040004904815009002200190032003901A
:1018E00069462046FFF7B6F92015CDE9000569469F
:1018F00020460295FFF7AEF90E4C0D4820601020EF
:10190000C4E901058020C4E903056561A56120469D
:10191000E561FFF729F908B1FEF720FEB4636662BE
:1019200006B070BD003801400010024000080140C0
:10193000440002406001002070B5044690F8410068
:10194000202801D0022070BD49B342B32162A28495
:10195000E28400206064212384F84130A56B114BA0
:10196000AB62A56B104BEB62A56B104B2B63A36BAB
:101970005863256813462A1DA06BFFF733F92168C9
:101980006FF0400008602068143050E8001F41F0FC
:10199000800140E80012002AF5D1002070BD01202E
:1019A00070BD0000EF1B0008311C0008A51B0008DB
:1019B00070477047FEE700003EB5002410480094D1
:1019C000019402940D49846001600473047501253B
:1019D00005614FF460214460C161FEF743FE08B128
:1019E00072B6FEE7CDE90045694605480294FEF768
:1019F000B7FD002801D072B6FEE73EBD00240140CD
:101A00007C000020FEE7FEE710B5502080F311882F
:101A1000BFF34F8FBFF36F8F00F09CFE18B10449E6
:101A20004FF080500860002080F3118810BD000046
:101A300004ED00E030B595B028216846FEF764FC5F
:101A400014210AA8FEF760FC18210FA8FEF75CFC21
:101A50000120022504900095102000240590079491
:101A60006846FFF72FFC08B172B6FEE70F20CDE9FC
:101A70000A040C940D9400210AA80E94FFF726FB8B
:101A800008B172B6FEE70FA80F951194FFF7A8FAF8
:101A9000002801D072B6FEE715B030BD70470000D7
:101AA0000148FFF706BE0000F8030020F0B5026809
:101AB0001C4B1D4D1D4E1E4F1E4C4FF0804C98422E
:101AC00009D0A04207D0604505D0A84203D0B0425B
:101AD00001D0B84204D122F0700E4A6842EA0E02E8
:101AE000984209D0A04207D0604505D0A84203D053
:101AF000B04201D0B84203D122F44075CA682A43EB
:101B00004D6922F080022A4302608A68C2620A6834
:101B10008262984201D0A04201D10969016301218A
:101B20004161F0BD002C014000040040000800406D
:101B3000000C00400034014004490122A1F178006A
:101B4000FEF768FE0A2000F0ADF9F5E7F40000208A
:101B500004490122A1F14800FFF7EEFE0A2000F03F
:101B6000A1F9F5E7F40000200B48816941F0FC0180
:101B700081610B4909480860094C4FF47A750C34AF
:101B8000206880F004002060284600F0F8F80A2061
:101B900000F088F9F4E70000001002404443444498
:101BA0000008014070B5446A2068406994F841100B
:101BB000C0F3C0100025212904D118B1E5842046C6
:101BC00000F062F82068406994F84210C0F3801079
:101BD000222904D118B1E585204600F02EF8606C6A
:101BE00040F0100060642046FFF723FE70BD10B582
:101BF0000146406A09680968890616D40021C18433
:101C00000168143151E8002F22F0800241E80023DE
:101C1000002BF5D101680C3151E8002F42F0400251
:101C200041E80023002BF5D110BDFFF7C1FE10BD28
:101C300010B5406AFFF7BDFE10BD01680C3151E8D8
:101C4000002F22F4907241E80023002BF5D10168A7
:101C5000143151E8002F22F0010241E80023002B4B
:101C6000F5D1016B012909D101680C3151E8002F30
:101C700022F0100241E80023002BF5D1202180F84A
:101C8000421000210163704701680C3151E8002FB8
:101C900022F0C00241E80023002BF5D1202180F87A
:101CA0004110704770B5044600680169E26821F48C
:101CB0004051114301612169A068084361690843EB
:101CC0002168CA6841F20C639A430243CA602068E3
:101CD0004169A26921F44071114341611E492068A4
:101CE000884202D1FFF7B8FA01E0FFF7A5FA00EB4E
:101CF000C00101EB0012606864218000B2FBF0F3C8
:101D0000B3FBF1F36FF018067343B2FBF0F5B2FBCF
:101D1000F0F605EB8305322303EB0515B5FBF1F572
:101D2000B6FBF1F605F0F00505EB0615B2FBF0F693
:101D3000B2FBF0F0B0FBF1F06FF01802504306EB8D
:101D4000800003EB0010B0FBF1F0216800F00F0001
:101D50002844886070BD000000380140FEE7090794
:101D6000090E002804DB00F1E02080F80014704721
:101D700000F00F0000F1E02080F8141D704718B546
:101D80000023194641F27074009307E00093009A13
:101D9000521C0092A242FAD3491C89B28142F5D367
:101DA00018BD000096B0FFF75FF8FFF743FE354817
:101DB000816941F010018161816901F01001159183
:101DC000816941F020018161816901F02001159153
:101DD000816941F004018161816901F0040115917B
:101DE000416941F0010141614069002200F00100B8
:101DF000159005210B20FFF7C1F80B20FFF7B0F875
:101E0000002205210E20FFF7B9F80E20FFF7A8F8F1
:101E10001E481D490C2201604FF4E1314160002150
:101E20008160C160C0E904128161C161FFF702FDF8
:101E300008B172B6FEE7FFF7BFFD1C2214496846E1
:101E4000FEF730FA0021684600F038F8114C1049CE
:101E50001C2220601C3107A8FEF724FA002107A8E5
:101E600000F02CF80A4960601C2238310EA8FEF7F9
:101E700019FA00210EA800F021F8A06000F019F86E
:101E8000FEE700000010024000380140AC000020D6
:101E9000E02800080000002001460020842900D02E
:101EA000C81C704710B500B9012000F015FB0020D8
:101EB00010BD10B500F036FB002010BD7FB50D46FB
:101EC00004464169B0F9080081B1A16971B1FFF719
:101ED000E3FFD4E905128DE80700D4E900102B4692
:101EE000226900F00CFC039004B070BDFFF7D4FF32
:101EF00003A9CDE90001208A2B4682B2D4E9001063
:101F000000F0D0FB012801D00020EDE70398EBE7BB
:101F10002DE9F041184C0F46054666692068001D02
:101F200000F016FA38B9206890F82C10012088408B
:101F3000A1698143A161681C07D137B12168BDE85F
:101F4000F0410E48091D00F047BA20683544B542FB
:101F50004560216805D2A068BDE8F041091D00F088
:101F600023BA6068091D00F01FFA206B854200D279
:101F70002563BDE8F08100001C0000201C05002046
:101F80002DE9F041054600F033FA2E4C2069401C43
:101F9000206120682C4F10B1E06940B32DE025602E
:101FA0002069012829D1002606EB860007EB800076
:101FB00000F0ECF9761C072EF6D323488C3000F0A5
:101FC000E5F92148A03000F0E1F91F48B43000F0F5
:101FD000DDF91D48C83000F0D9F91B48DC3000F0AD
:101FE000D5F919488C3060601430A06005E0206895
:101FF000E96AC06A884200D82560E06A401CE06255
:10200000E96A0120A26988401043A06101EB8100C8
:1020100007EB8000291D00F0DFF900F009FAE06904
:1020200000280CD02068E96AC06A884207D20749B4
:102030004FF080500860BFF34F8FBFF36F8FBDE844
:10204000F08100001C0000204004002004ED00E0AE
:1020500010B5044690F8510058B101280CD0022860
:102060000FD0502080F31188BFF34F8FBFF36F8FD5
:10207000FEE7206B00F0F0F92046BDE8104000F0CC
:10208000EBB910BD10484FF44061420706D0C01DA7
:102090000D4920F00700411AC1F540610B4A0023A9
:1020A0000144C2E900030839103A21F00701116028
:1020B0004B600B600B1AC0E9001393604FF00040B7
:1020C0005360D06070470000300500206800002099
:1020D000144E154CA6F1C8074FF08058DFF84C900D
:1020E00012E000BF00F084F9F068C568281D00F018
:1020F0002FF92069401E2061E068401EE06000F07A
:1021000097F92846FFF7A4FFE0680028EAD138686D
:102110000128F9D9C9F80080BFF34F8FBFF36F8F43
:10212000F2E70000080500201C00002004ED00E09C
:102130002DE9F0479A46DDE9098481466FF00303F3
:10214000206B03EB82021044089D20F00706700705
:1021500007D0502080F31188BFF34F8FBFF36F8FEC
:10216000FEE723180A5C83F834200A5C12B1401C95
:102170001028F6D3002784F84370072D00D30625D6
:10218000E562C4E91157201D00F00BF904F11800B5
:1021900000F007F92461C5F107006462A061E764FB
:1021A00084F8507052464946304600F0BFF820602F
:1021B000B8F1000F01D0C8F80040BDE8F08700007A
:1021C00030B5114900E011460A688242FBD34B68E2
:1021D0005C18844203D1406818444860084643684C
:1021E0001C18944209D1084C103C2468A24209D022
:1021F00052681A4442600A6812680260814200D044
:10220000086030BD0460F9E76800002006484168B6
:10221000096829B14168C968C9684968016370479C
:102220004FF0FF31FAE700001C000020084840682A
:10223000401C4FF0500080F3118804D0BFF34F8F43
:10224000BFF36F8FFEE7BFF34F8FBFF36F8FFEE7D4
:10225000700000202DE9F0410546002700F098F9B4
:10226000314E306808B9FFF70DFFF06805424BD1D9
:10227000C5B3083568070ED005F00700C0F10800A7
:102280000544680707D0502080F31188BFF34F8FB3
:10229000BFF36F8FFEE72DB37068854234D82248B4
:1022A000103001460C6801E020460C466168A942E6
:1022B00002D221680029F7D131688C4224D0076806
:1022C0002168016060680837411B10290FD9601927
:1022D000420708D0502080F31188BFF34F8FBFF31F
:1022E0006F8FFEE710E041606560FFF769FF61688E
:1022F0007068401A7060B268904200D2B060F068B6
:1023000001430020C4E9000100F088FA780707D0F3
:10231000502080F31188BFF34F8FBFF36F8FFEE71C
:102320003846BDE8F08100005800002010B5031FBA
:102330004FF080741C601B1F21F001011960191FF0
:10234000024B0B60143940380A6010BD2D22000882
:10235000D0E9013201699A60D0E901235A604A68E4
:10236000824201D182684A60002202610868401EF0
:102370000860086870470000034B036003F15400D5
:102380000860802010607047A401002000F108015F
:102390004FF0FF32C0E90112C1600161002101600C
:1023A000704700210161704730B50B685A1C02D09C
:1023B00000F1080202E0026904E022465468256840
:1023C0009D42FAD953684B6099608A6051600861F8
:1023D0000168491C016030BD42684A6093688B60A7
:1023E00093685960916008610168491C01607047F9
:1023F000502080F31188BFF34F8FBFF36F8F0A49CE
:102400004868401C486001280CD10848006810F05A
:10241000FF0F07D0502080F31188BFF34F8FBFF319
:102420006F8FFEE7704700007000002004ED00E0B1
:102430000849486828B1401E486001D180F31188DE
:102440007047502080F31188BFF34F8FBFF36F8F19
:10245000FEE700007000002070B5002827D0144D62
:10246000A0F108046168E868014207D1502080F3B8
:102470001188BFF34F8FBFF36F8FFEE722683AB129
:10248000502080F31188BFF34F8FBFF36F8FFEE7AB
:102490008143616000F07CF86068696808446860A6
:1024A0002046FFF78DFEBDE8704000F0B7B970BD63
:1024B000580000204FF0E0200021016181610549B2
:1024C0004FF47A720968B1FBF2F1491E41610721AC
:1024D000016170471800002010B5020014D00F48A9
:1024E000806B38B1502080F31188BFF34F8FBFF35A
:1024F0006F8FFEE700F04CF800211046FFF708FD53
:1025000000F08CF9002807D105494FF08050086091
:10251000BFF34F8FBFF36F8F10BD00001C00002072
:1025200004ED00E010B586B00024039405AA04A9C8
:1025300003A80494FFF720FFDDE903010094CDE92F
:10254000011000230EA11048059A00F0D8F80F4999
:102550000028486311D0502080F31188BFF34F8FBB
:10256000BFF36F8F4FF0FF3008630120C8614C61EB
:1025700006B0BDE8104000F041B806B010BD000044
:1025800049444C4500000000D12000081C000020F8
:102590000248816B491C8163704700001C000020C9
:1025A0001448816B11B101214162704700214162E1
:1025B0008169B1FA81F1C1F11F0101EB81020E497C
:1025C00051F822306BB101EB820101F108034A6836
:1025D00052684A609A4201D152684A60D1680160EB
:1025E0007047502080F31188BFF34F8FBFF36F8F78
:1025F000FEE700001C000020400400201CB5264916
:1026000008780190FF20087008788DF800009DF888
:1026100000009DF8002000F0F000904207D050200C
:1026200080F31188BFF34F8FBFF36F8FFEE79DF8E4
:1026300000001A4B00F0500018700720986005E069
:102640009DF8002052008DF80020401E9DF80020CB
:102650001206F5D49860032807D0502080F3118823
:10266000BFF34F8FBFF36F8FFEE74FF4407098605A
:10267000019808700A48016841F47001016001681E
:1026800041F070410160FFF715FF00205860FDF731
:10269000AFFD00201CBD000000E400E07000002041
:1026A00020ED00E02DE9FF5F8346DDE90E879946C6
:1026B00016468A469000FFF7CDFD05001CD0542039
:1026C000FFF7C8FD040014D00020256384F85100F2
:1026D000CDE90240CDE900874B4632465146584687
:1026E000FFF726FD2046FFF74BFC012004B0BDE8B4
:1026F000F09F2846FFF7B0FE4FF0FF30F6E7F0B549
:1027000085B0DDE90B640A9DA6B1DCB154270097C2
:102710002663022684F85160002604AFCDE9024604
:10272000CDE90057FFF704FD2046FFF729FC049888
:1027300005B0F0BD502080F31188BFF34F8FBFF379
:102740006F8FFEE7502080F31188BFF34F8FBFF3E8
:102750006F8FFEE72DE9F0412E4C0027A06B40B1B2
:10276000206A401C2062606A00B101273846BDE83B
:10277000F0816669761C666113D16068006838B1C3
:10278000502080F31188BFF34F8FBFF36F8FFEE7A8
:102790006068A1686160A060A06A401CA062FFF749
:1027A00035FD206BDFF87080864209D360680068D1
:1027B00080B16068C068C568686886420DD22063D1
:1027C0002068C06A00EB800158F821000128CAD9AE
:1027D0000127C8E74FF0FF30F1E7281DFFF7B8FDEC
:1027E000A86A18B105F11800FFF7B2FDE86A0121E7
:1027F000A26981401143A16100EB800108EB8100D7
:10280000291DFFF7E9FDE86A2168C96A8842CDD32E
:102810000127CBE71C000020400400202DE9F047F1
:102820002C4D00242746A86B38B1FFF7E1FDA86BBB
:10283000401EA863A86B40B146E0502080F3118889
:10284000BFF34F8FBFF36F8FFEE72969224E012040
:10285000D1B3A6F1B40980463068E8B1F068C46825
:1028600004F11800FFF774FD201DFFF771FDE06A09
:10287000AA6908FA00F11143A96100EB800109EB94
:102880008100211DFFF7A8FDE06A2968C96A884216
:10289000E2D3C5F82480DFE70CB1FFF7B7FC2C6A60
:1028A00044B14646FFF756FF00B16E62641EF9D18F
:1028B00000202862686A38B1084901273807086093
:1028C000BFF34F8FBFF36F8FFFF7B2FD3846BDE800
:1028D000F08700001C000020F404002004ED00E05C
:1028E00060290008391B00080000000000000000FB
:1028F00080000000000000000000000080290008A7
:10290000511B0008010000000000000080000000D2
:10291000000000000000000070290008691B00088A
:10292000FFFF000000000000800000000000000029
:1029300000000000010202030405060708090A0B53
:102940000C0D0E0F1010000000000000000001022E
:102950000304060708090000000001020304000048
:102960005461736B30315F4144435F444D4100001B
:102970005461736B30335F426C696E6B4C656400FD
:102980005461736B30325F444D415F556172740026
:10299000B0290008000000207C0000006C01000845
:1029A0002C2A00087C000020141700008801000871
:1029B0000000000000000000000000000100000016
:1029C00010000000000000000024F40000000000DF
:1029D00000000000000000000000000000000000F7
:1029E00000000000000000000000000000000000E7
:1029F00000000000000000000000000000000000D7
:102A000000000000000000000000000000000000C6
:102A100000000000000000000000000000000000B6
:0C2A200000000000AAAAAAAA0000000002
:0400000508000131BD
:00000001FF
