:020000040800F2
:10000000A81E0020BD020008CD3700082D330008CF
:100010005D3700088D150008FD3D00080000000058
:1000200000000000000000000000000025020008A1
:10003000D31500080000000069020008CD3A00084E
:10004000D7020008D7020008D7020008D70200082C
:10005000D7020008D7020008D7020008D70200081C
:10006000D7020008D7020008D7020008911500083F
:10007000D7020008D70200089D150008D702000823
:10008000D7020008D7020008D7020008D7020008EC
:10009000D7020008D7020008D7020008D7020008DC
:1000A000D7020008653B0008D7020008D702000805
:1000B000D7020008D7020008D7020008D7020008BC
:1000C000D7020008D7020008D7020008D7020008AC
:1000D000D7020008D7020008D7020008D70200089C
:1000E000D7020008D7020008D7020008D70200088C
:1000F000D7020008D7020008D7020008D70200087C
:10010000D7020008D7020008D7020008D70200086B
:10011000D7020008D7020008D7020008D70200085B
:10012000D7020008D7020008D7020008D70200084B
:1001300000F002F800F067F80AA090E8000C824492
:100140008344AAF10107DA4501D100F05CF8AFF26F
:10015000090EBAE80F0013F0010F18BFFB1A43F0A5
:1001600001031847945C0000B45C00000A444FF09F
:10017000000C10F8013B13F0070408BF10F8014B06
:100180001D1108BF10F8015B641E05D010F8016B4B
:10019000641E01F8016BF9D113F0080F1EBF10F8AF
:1001A000014BAD1C0C1B09D16D1E58BF01F801CBD2
:1001B000FAD505E014F8016B01F8016B6D1EF9D555
:1001C0009142D6D37047000000230024002500266A
:1001D000103A28BF78C1FBD8520728BF30C148BFAA
:1001E0000B607047662904F03586002070471FB504
:1001F00000F0D2FB04000020002104F053FCE0607A
:100200001FBD10B510BD00F0C7FC1146FFF7EFFF92
:1002100003F020FE00F0E5FC03B4FFF7F2FF03BC9F
:1002200000F028FD224B19680868B0E8F00F80F351
:100230000988BFF36F8F4FF0000080F311884EF0F4
:100240000D0E70470000000006480068006880F34B
:10025000088862B661B6BFF34F8FBFF36F8F00DFC0
:1002600000BF00BF08ED00E0EFF30980BFF36F8F20
:100270000F4B1A6820E9F00F106008B54FF05000DE
:1002800080F31188BFF34F8FBFF36F8F04F06AFACA
:100290004FF0000080F31188BDE808401968086835
:1002A000B0E8F00F80F30988BFF36F8F704700BF8D
:1002B0007C020020EFF3058070470000094880476A
:1002C00009480047FEE7FEE7FEE7FEE7FEE7FEE738
:1002D000FEE7FEE7FEE7FEE704480549054A064B50
:1002E00070470000613B000831010008A818002099
:1002F000A81E0020A81A0020A81A00200FB41CB5C0
:10030000074B06AA7B4469460090059800F009FB5C
:100310000020694600F018FB1CBC5DF814FB0000CF
:10032000410600002DE9F0474FF0000A89460446D7
:10033000C0F820A02046E1688847002876D025280C
:1003400006D0D4E901219047206A401C2062F1E7E1
:10035000E168204600258847C4F81CA0064600270F
:10036000C4F818A02A2E09D0304603F06CFD38B32B
:1003700004EB8708303EC8F8186019E059F8041BF0
:10038000204604EB87029161E1688847012F064609
:1003900018D1E069002820DA25F020051DE0D8F802
:1003A000180000EB800006EB40003038C8F8180059
:1003B0002046E1688847064603F045FD0028EED157
:1003C000012F0AD02E2E08D12046E16888477F1CD5
:1003D0000646022F45F02005C4DBA069002803DA99
:1003E000404245F00105A061E80701D025F0100565
:1003F000B6B1A6F14100192802D8203645F40065AF
:100400004A463146204625604D46FFF7EBFE58B17F
:10041000012806D0ED1D25F0070000F1080989E745
:1004200004E005F1040985E730468AE7206ABDE863
:10043000F08710B5203AC0F00B80B1E81850203A90
:10044000A0E81850B1E81850A0E81850BFF4F5AF74
:100450005FEA027C24BFB1E81850A0E8185044BFFE
:1004600018C918C0BDE810405FEA827C24BF51F86B
:10047000043B40F8043B08BF7047D20728BF31F85F
:10048000023B48BF11F8012B28BF20F8023B48BFB0
:1004900000F8012B704702F0FF0343EA032242EA0F
:1004A000024200F058BA4FF0000200B513469446DD
:1004B0009646203922BFA0E80C50A0E80C50B1F1BC
:1004C0002001BFF4F7AF090728BFA0E80C5048BFD0
:1004D0000CC05DF804EB890028BF40F8042B08BF6E
:1004E000704748BF20F8022B11F0804F18BF00F86A
:1004F000012B704770477047704770472DE9FF4FD9
:100500000C461E464FF0FF378BB0D2E90001DDF8F4
:1005100060800A908A46C1F30A5505B93D4600211C
:1005200008464FF00000BAF1000F00F4400005DA71
:1005300000EB80004FF4400101EA50004FEA90596F
:10054000B9F1010F00DDB9460A9850EA4A000ED011
:1005500044F61050A5F2FF3545432F14B8F1000FB3
:100560001ED07542291E1EDDC9F100021CE0B8F143
:10057000010F4FF0000001D0302103E0F24305E00D
:100580002154401CB042FBDB3046002200212154A4
:100590000B99C1F80880C1E900200FB0BDE8F08FC9
:1005A000BD1B6D1CDEE74A4600DA694206A800F072
:1005B0007DFA06AB93E8070003AB83E807005046DB
:1005C0000A9900F05EFB8DE80700A0F500501F3887
:1005D00000900398002D0ADD42F21F014A460844AC
:1005E000002303A90390684600F0C7FD09E0A0F5C9
:1005F00000504A461F38002303A90390684600F0C4
:10060000D1FD8DE807000004000C03D04FF0FF304F
:10061000410800E01046B8F1000F03D0002200921C
:1006200015461EE0751E05D400F0BAF93032625549
:100630006D1EF9D5B3460122084302D000227F1C6B
:1006400004E02078302801D100227F1E002A09977B
:1006500084D01DE0112D07DA00F0A2F93032625586
:100660006D1C50EA0102F5D1084302D00098C8B1D0
:100670000EE00021681E05E0235C625C6354225496
:10068000401E491C8142F7DBAB46A81B401E099067
:10069000002004F80B000B98099AC0F80880C0E904
:1006A000002B7AE711264FF0000857E72DE9F04FAD
:1006B00088460446D21D22F0070191B0D1E900011D
:1006C000CDE90A0103F09BFB02460B98C00F01D055
:1006D0002D2007E02068810701D52B2002E0202192
:1006E00001EAC000032A099001D0072A05DB03466E
:1006F0004146204600F09AF90BE12078800601D5AA
:10070000E06900E00620B8F1650F814606D0B8F137
:10071000660F18D0B8F1670F70D131E00020B9F141
:10072000110F009001DB112301E009F101030AAA76
:1007300001A90CA8FFF7E2FEDDE90C70002609F123
:100740000105834647E001204B4600904FF00047EB
:100750000AAA01A90CA8FFF7D1FEDDE90DB00C999A
:100760005D46002610B909F101000D18B9EB05002E
:1007700003D4C0F1FF3609F10105A5EB09002BE018
:10078000B9F1010F01DA4FF001090020B9F1110FA1
:100790000090484601DD112300E003460AAA01A9A2
:1007A0000CA8FFF7ABFEDDE90C704D460026834632
:1007B000207800070AD4AB4500DA5D4601A8012D78
:1007C00004DD411911F8011C302907D04F4502DA28
:1007D00017F1040F04DA012082460FE06D1EEEE7E8
:1007E000002F02DCED1B3E4403E0781CA84200DD34
:1007F0007D1CB81B00F1010A4FF00047207800076C
:1008000003D4AA4501DB4FF0FF3A0021B7F1004FB6
:100810000DF143088DF8431024D002202B23002F24
:1008200001DA7F422D230A21021EA0F1010000DC23
:100830005FB197FBF1FC97FBF1F201FB1C7C1746C3
:100840000CF1300C08F801CDEEE7A8F101000370BF
:100850002188090501D5452100E06521A0F10108A5
:1008600000F8011C09980FA9A1EB0807FF1D00B1B2
:100870000120411901EBEA70A1693844081A401EB1
:10088000A0612078C00602D42046AFF3008009980A
:1008900028B1D4E901219047206A401C20622078C9
:1008A000C00622D52046AFF300801EE0002E04DBF8
:1008B000B34502DD01A8805D00E03020D4E90121CC
:1008C0009047206A401C2062761CAAF101005FEA72
:1008D000000A0AD100F060F8C0680168405CD4E901
:1008E00001219047206A401C2062281EA5F10105C5
:1008F000DCDC07E0D4E9012118F8010B9047206AFD
:10090000401C2062381EA7F10107F3DC2046AFF33C
:100910000080032011B041E601694A1C0261087899
:10092000704700B58FB0CDE901310021059105492F
:100930007944CDE9031011466846FFF7F3FC0FB088
:1009400000BD0000E5FFFFFF0A6802F8010B0A6026
:1009500070474FF000020429C0F0128010F0030C21
:100960003FF4A3ADCCF1040CBCF1020F18BF00F8AA
:10097000012BA8BF20F8022BA1EB0C01FFF795BDBE
:100980005FEAC17C24BF00F8012B00F8012B48BFAF
:1009900000F8012B704700000048704764180020E1
:1009A00030B5B0F10A024FEA900E71F100034EEA41
:1009B000817EB0EB0E0061EB91014FEA101E4EEA12
:1009C000017E10EB0E0041EB11114FEA102E4EEAA2
:1009D000016E10EB0E0041EB11214FEA104E4EEA72
:1009E000014E10EB0E0041EB1141401841F10001A6
:1009F0004FEAD00040EA41704FEAD10110EB800588
:100A00004FEA810444EA907444EB01046D1944EB0D
:100A10000404521BA3414FF0000348BF0A3200D523
:100A200030BD401C41F1000130BD00002DE9F04116
:100A30001F46044603260168072A01F4006004DB10
:100A400008B116A505E016A503E008B115A500E05C
:100A500015A521F010002060A069C01EA0610FB193
:100A6000401EA0612046AFF300804FB1D4E90121C0
:100A700038469047206A401C2062C01C206206E075
:100A8000206AFAE7D4E9012115F8010B9047761E98
:100A9000F8D22046AFF30080BDE8F0814E414E0011
:100AA0006E616E00494E4600696E66002DE9F047A2
:100AB000814616468AB0354878440DC88DE80D0049
:100AC00032487844801C03AC0DC884E80D0041F620
:100AD0009B300844372190FBF1F290FBF1F5A5F132
:100AE000800501FB12041B3C02D56442012000E09A
:100AF0000020DFF898A080460027FA44AAF1BE0A39
:100B00000EE0E0070AD03246684607EB47010123B2
:100B10000AEB810100F046FB8DE8070064107F1CA2
:100B2000002CEED1194F7F44AE3F19E0E80715D0F5
:100B300007EB04100DF1180A90E80E008AE80E0089
:100B4000C068F04201D1981908903246012306A9E5
:100B500003A800F027FB03AB83E807006D10641CBB
:100B6000002DE3D14FF0010332466946B8F1000F82
:100B700003A802D000F001FB01E000F013FBC9E97B
:100B80000001C9F808200AB0BDE8F087F45200005F
:100B900000487047441800207546FFF7F9FFAE463D
:100BA00005006946534620F00700854618B020B579
:100BB000FFF792FBBDE820404FF000064FF0000722
:100BC0004FF000084FF0000B21F00701AC46ACE8F5
:100BD000C009ACE8C009ACE8C009ACE8C0098D4662
:100BE000704710B50446AFF300802046BDE81040C2
:100BF000FFF712BB4FF0013C50F8042B51F8043BB7
:100C00009A4221D1A2EB0C03934313EACC1317D1E0
:100C100050F8042B51F8043B9A4215D1A2EB0C0377
:100C2000934313EACC130BD150F8042B51F8043B37
:100C30009A4209D1A2EB0C03934313EACC13DBD005
:100C40004FF00000704700BFD01A01BAB1FA81F12D
:100C500001F0180122FA01F0CB40C1F12001DBB212
:100C6000C0B2C01A2CFA01F3D11A914311EAC31190
:100C7000E6D1704701491820ABBEFEE7260002000E
:100C800070475FEA400C08BF91F0000F4FEA8C23D9
:100C90004FEAC12243EA51514FEA1C5018BF00F5F8
:100CA000F0404FEA300018BF41F000415FEA6C5C51
:100CB00000F02980BCF1FF3F08BF40F08040704742
:100CC000130C06BF12044FF0100C4FF0000C130E63
:100CD00004BF12020CF1080C130F04BF12010CF137
:100CE000040C930F04BF92000CF1020CD30F04BF4D
:100CF00052000CF1010C11464FF00002A0F11F0050
:100D0000A0EB0C00704711F0004F08BF704731F0A6
:100D100000413FF4D5AF0B0C06BF09044FF0100C97
:100D20004FF0000C0B0E04BF09020CF1080C0B0F66
:100D300004BF09010CF1040C8B0F04BF89000CF1F6
:100D4000020CCB0F04BF49000CF1010CCCF12003C5
:100D5000A0EB0C0022FA03F302FA0CF241EA0301C1
:100D600000F10100704720F07F4C80EA030023F07F
:100D70007F47ACEB070303F57C5300F0004003F121
:100D8000FF032DE980494FEA154B09B44FEA14439C
:100D900025EA0B4E24EA03480FF2042606EB13273C
:100DA00049083E785FEA320203FB0667C7F5000791
:100DB00007FB06F64FEA54374FEAD64606F102061D
:100DC00007FB066CCCF1005C4FEA1C472CEA074C91
:100DD00007FB06F40CFB06F504EB15464FEA9616E6
:100DE00034BF00204FF000404FEAD13706FB07FC2C
:100DF0004FEA1C4C0CFB0BF7D21B03FB0CF761EB0F
:100E000007010CFB0EF7B0EB074072EB17420CFB2F
:100E100008F734BFA2EB0742B2EB074261EB174180
:100E20004FEA0C444FEA910706FB07FC4FEA1C4CC3
:100E30000CFB0BF7B0EBC74072EB573203FB0CF720
:100E400034BFA2EBC742B2EBC74261EB57310CFB98
:100E50000EF7B0EBC70072EB57720CFB08F734BF0C
:100E6000A2EBC702B2EBC70261EB5771039F4FEAD7
:100E7000816141EA921104EBCC044FEAD1374FEA89
:100E8000826206FB07FC42EA90124FEA80604FEA5A
:100E90001C4C0CFB0BF7D21B03FB0CF761EB07019F
:100EA0000CFB0EF7B0EB074072EB17420CFB08F798
:100EB00034BFA2EB0742B2EB074261EB17414FEAA6
:100EC0008C554FEA910704EB9C2406FB07FC4FEA84
:100ED0001C4C0CFB0BF7B0EBC74072EB573203FB1B
:100EE0000CF734BFA2EBC742B2EBC74261EB5731FC
:100EF0000CFB0EF7B0EBC70072EB57720CFB08F758
:100F000034BFA2EBC702B2EBC70261EB577115EB1E
:100F10004C254FEA816141EA92114FEA82624FEA21
:100F2000D13742EA901206FB07FC44F100044FEA75
:100F300080604FEA1C4C0CFB0BF7D21B03FB0CF739
:100F400061EB07010CFB0EF7B0EB074072EB1742A9
:100F50000CFB08F734BFA2EB0742B2EB074261EB90
:100F6000174115EB1C154FEA813141EA92414FEAD6
:100F7000823242EA90424FEA80304FEA0C7644F1E6
:100F8000000448EA03434EEA0B484FF0000EB2EB70
:100F9000080C71EB030724BF624639464EEB0E0E78
:100FA0004FF0000B0018524149414BEB0B0BB2EBD9
:100FB000080C71EB03077BF1000B24BF6246394636
:100FC0004EEB0E0E4FF0000B0018524149414BEB17
:100FD0000B0BB2EB080C71EB03077BF1000B24BF8A
:100FE000624639464EEB0E0E51EA020718BF46F034
:100FF000010616EB0E7655F1000254F1000103D5FF
:10100000BDE88901BDE80088BDE88901BDE8004868
:10101000B619524141EB0101A3F1010370478080F1
:101020007F7E7D7C7B7A7978777676757473727142
:1010300071706F6E6E6D6C6C6B6A6A6968686766FA
:1010400066656464636362616160605F5F5E5E5D8C
:101050005D5C5C5B5B5A5A59595858575756565500
:1010600055555454535352525251515050504F4F62
:101070004F4E4E4D4D4D4C4C4C4B4B4B4A4A4A49B2
:1010800049494848484747474746464645454544F5
:101090004444444343434342424242414141002B82
:1010A0009C4630D477002BD01CB54FEA370703B4E9
:1010B0004FF010004FF01001BAF1000F06D0BCF154
:1010C000000FDCBF40F0080040F008014FF00000C6
:1010D0000FBCBDE810400BF1010BBBF1010F08BFC5
:1010E0005FEA170722BF12F1010211F101014FF06F
:1010F000004143F1000300F0004043EA0000704764
:10110000F9D35708D0E746EA064613F1400F4FEAF5
:1011100016461FDD13F1200FDFBF16430A460021DC
:1011200020335B42BED0C3F1200746EA064602FAEE
:1011300007F74FEA164646EA0706C3F1200722FAE8
:1011400003F201FA07F721FA03F14FF0000342EA34
:101150000702A7E746EA020646EA06464FEA1646AF
:1011600046EA0106BCBF46EA0646360C4FF00003CD
:101170004FF000024FF0000194E72DE9804C9A46B1
:10118000934670B491E8380007C831EA400C48BF74
:1011900034EA430C03D5FFF7E6FDFFF780FFF0BC10
:1011A000BDE8008C2DE9804C9A46934670B491E8D6
:1011B000380007C810F0804F08BF13F0804F03D1EC
:1011C00000F005F8FFF76BFFF0BCBDE8008C20F0E5
:1011D0007F4780EA030023F07F4C07EB0C03A3F565
:1011E0007C5300F00040A3F1FE0392F0000F00F0EA
:1011F000B38095F0000F00F077802DE901494FEAA8
:1012000011404FEA144621EA004800FB06FC24EA9C
:10121000064708FB06F607FB08F800FB07F718EB84
:1012200006484CEB164C4FEA124B18EB07484FEAB6
:1012300015464CEB174022EA0B4E0BFB06FC25EA49
:1012400006470EFB06F607FB0EFE0BFB07F71EEB31
:10125000064E4CEB164C4FF000061EEB074E4CEBC7
:10126000174B18EB0B0840F1000018EB0E0B58EB76
:10127000000840F100008F1A4FF000013CBFC94345
:10128000661B14BFB5EB040C00213CBFC943F61B21
:101290004FEA17444EEA8E0E27EA04454FEA1C47F0
:1012A00004FB07622CEA074C05FB07F70CFB05F66D
:1012B00004FB0CFC16EB074642EB174216EB0C4600
:1012C00042EB1C421BEB060658EB0202414146EA88
:1012D0009E0601D5BDE80189B619524141EB0101D5
:1012E000A3F10103BDE801894FEA14454FEA114714
:1012F00024EA054621EA074C05FB07F406FB07F73D
:101300000CFB06F105FB0CFC11EB074144EB174409
:101310004FEA124711EB0C4144EB1C4422EA074C04
:1013200005FB07F206FB07F70CFB06F605FB0CFCBA
:1013300016EB074642EB174216EB0C4642EB1C45F8
:101340006A1854F1000148BF7047B619524141EB89
:101350000101A3F10103704795F0000F37D04FEA68
:1013600011424FEA144721EA024624EA074C02FBE5
:1013700007F106FB07F70CFB06F402FB0CFC14EB71
:10138000074441EB17414FEA154714EB0C4441EB7E
:101390001C4125EA074C02FB07F506FB07F70CFB8F
:1013A00006F602FB0CFC16EB074645EB174516EB61
:1013B0000C4645EB1C42121951F1000148BF704721
:1013C000B619524141EB0101A3F1010370474FEA05
:1013D00014454FEA114724EA054621EA074C05FB6C
:1013E00007F106FB07F70CFB06F24FF0000605FBC2
:1013F0000CFC12EB074241EB174112EB0C4251EB94
:101400001C4148BF7047921841EB0101A3F1010351
:101410007047000070B5044600688168C943C90779
:1014200017D1816821F00101816000F0DDFE0546E1
:101430000AE000BF00F0D8FE401B022804D9206853
:101440008068C043C00706D020688068C043C007DA
:10145000F0D0002070BDA06A40F01000A062E06AE9
:1014600040F00100E062012070BD10B50146406A05
:10147000826A12F0500F05D0006A026BBDE810407E
:1014800008461047816A41F40071816201688968E9
:10149000C1F3424107290CD1017B51B9816A21F482
:1014A00080718162816AC90403D4816A41F00101BB
:1014B000816200F07BF910BD10B5406A816A41F08D
:1014C00040018162C16A41F00401C16200F070F91B
:1014D00010BD10B5406A00F06AF910BDF8B50026DD
:1014E0000446009600688168C943C9072DD0816809
:1014F00041F001018160164816490068B0FBF1F027
:1015000000E0401E00900028FBD100F06DFE054673
:1015100016E000BF00F068FE401B022810D92068CA
:101520008068C043C0070BD0A06A40F01000A062E2
:10153000E06A40F00100E06284F824600120F8BD18
:1015400020688068C043C007E4D10020F8BD0000D7
:101550007802002040420F0030B40B4B4FF480540F
:1015600048B101280ED101290AD00022410330BC24
:10157000184600F034BE012902D000222146F6E7C9
:101580000122FBE730BC704700100140FEE700007D
:10159000014800F089BB000030080020014800F03D
:1015A00083BB00007408002030B590F8405001243F
:1015B000AC40C56B6C60046863604368102B0368C3
:1015C00003D099600068C26030BD9A600068C16055
:1015D00030BD704772B6FEE7F8B5002504460095A9
:1015E00090F8240001280BD0012084F82400204624
:1015F000FFF710FF2046FFF771FF060002D050E012
:101600000220F8BDA06A20F4885040F00200A062D9
:10161000022001F0F1F825490968B1FBF0F0400023
:1016200000E0401E00900028FBD12068816841F056
:101630000801816000F0D8FD074608E000F0D4FD05
:10164000C01B0A2803D920688068000715D42068C9
:1016500080680007F2D42068816841F0040181604D
:1016600000F0C2FD074612E000F0BEFDC01B0A28D4
:101670000DD920688068400709D5A06A20F00200D3
:1016800040F01000A06284F824500120F8BD2068CA
:1016900080684007E8D4A06A20F0020040F0010012
:1016A000A06284F824503046F8BD00007802002083
:1016B000F8B50024009490F824202546012A12D081
:1016C000012280F824204A681F23072A0DD20668C9
:1016D000776B521E02EB820293409F430B6893404C
:1016E0001F43776319E00220F8BD06680D2A0AD26D
:1016F000376BD21F02EB820293409F430B689340EB
:101700001F43376309E0F76A0D3A02EB8202934008
:101710009F430B6893401F43F7620A6807230668DC
:101720000A2A0AD3F7680A3A02EB420293409F431F
:101730008B6893401F43F76008E0376902EB420271
:1017400093409F438B6893401F4337610A68102A78
:1017500001D0112A20D1124B02689A4217D1936806
:101760001B0219D4936843F400039360096810299D
:1017700012D10C490C4A0968B1FBF2F101EB81016D
:10178000490000E0491E00910029FBD104E0816A74
:1017900041F020018162012480F824502046F8BDE8
:1017A000002401407802002040420F00704770473B
:1017B00070470068C06C70472DE9F04104004FF09D
:1017C00000057FD0A06A002628B9E66284F824606C
:1017D000204600F081F82046FFF71CFEA16AC906EA
:1017E00000D420B1A06A40F01000A0626AE0A16AB3
:1017F00021F4885141F00201A162334923688B42F0
:10180000E16904D1B1F5402F01D14FF40021277BCC
:101810004FF4807C41EA470261680A43A168614550
:1018200008D0012906D0002194F814E0BEF1010F80
:1018300002D00AE06146F7E7C7B1A76A47F0200780
:10184000A762E76A47F00107E7625F6827F4694724
:101850000F435F60236899681C4F394011439960BA
:10186000A16861450BD0012909D00CE0DFF860E0E8
:10187000A7690EEB47370F4347F40061E5E7218A7C
:101880000D05A5F580152168CB6A23F470032B4361
:10189000CB62216889680F4B1940914208D1E662FA
:1018A000A16A21F0020141F00101A162BDE8F081CD
:1018B000A06A20F0020040F01000A062E06A40F050
:1018C0000100E0620120F1E7003C0140FDF7E1FF8B
:1018D00000E0FFFFFE0E1FFF70B586B000250095EB
:1018E0000195029503950646274C02682749032077
:1018F000274BA2422DD18A6942F400728A618A691B
:1019000002F4007204928A6942F004028A618969D1
:1019100001F0040104910121CDE900106946184647
:1019200000F05CFB1C4C1B48C4E900058020C4E9A6
:101930000250400020618000C4E905052046E561B1
:1019400000F0D6FA08B1FFF745FE3462666206B0D1
:1019500070BD124CA242FAD18A6942F480628A6157
:101960008A6902F4806204928A6942F004028A6100
:10197000896901F0040104910221CDE90010694652
:10198000184600F02BFBE2E7002401400010024063
:1019900000080140080002403008002000280140F3
:1019A0002DE9F84300270D460446009700F01CFC83
:1019B000804620688168C90508D5A06A40F02000EB
:1019C000A06284F824700120BDE8F8834168C9054D
:1019D00003D4C06A10F4700F2AD0022000F00CFF6C
:1019E0003B490968B1FBF0F62068036939490B42AD
:1019F0004FEA61014FEAA1121FD1C3684FEA611C8F
:101A000013EA0C0F19D103690B4225D1C0681042AB
:101A100022D1142023E0681C0AD02DB100F0E4FB91
:101A2000A0EB0800A84203D920680068800725D5EC
:101A3000206800688007EED52DE003690B4202D1D3
:101A4000C168114206D0026923490A4206D1C06822
:101A5000084203D1542002E0292000E0FC20464344
:101A6000009816E0681C11D02DB100F0BDFBA0EB72
:101A70000800A8420AD90098B04207D2A06A40F0F4
:101A80000400A06284F8247003209DE70098401CA5
:101A90000090B042E6D321686FF012000860A06A9F
:101AA00040F40070A06220688068C0F342400728BC
:101AB0000CD1207B50B9A06A20F48070A062A06A8B
:101AC000C00403D4A06A40F00100A06200207BE7BC
:101AD00078020020244992244992240070B50446DB
:101AE00090F8240001280DD0012084F8240020461D
:101AF000FFF7F4FC02004FF0000005D084F824004A
:101B0000104670BD022070BDA16A40F201239943C6
:101B100041F48071A1621F4D23681F49AB4218D167
:101B20000E6816F4702F14D0A66A46F48016A662CA
:101B30000E68760505D5A66A26F4005646F480564A
:101B4000A662A66AF6040AD5E66A26F00606E662EA
:101B500006E0A66A26F48016A6625E68E9E7E062FF
:101B600084F824006FF00200186020688368C3F3D3
:101B70004243072B05D1A84208D1096811F4702F00
:101B800004D0816841F480118160B9E7816841F433
:101B9000A001F9E700280140042401402DE9F047A5
:101BA000894604463B4900683B4F0E1D90468842DB
:101BB00001D0B84207D1306810F4702F03D001254E
:101BC0002846BDE8F08794F8240001280CD00120B5
:101BD00084F824002046FFF781FC05004FF0000048
:101BE00004D084F82400EBE70220EAE7A16A40F67B
:101BF0000162914341F48071A1622168B94218D118
:101C0000326812F4702F14D0A16A41F48011A162DD
:101C10003168490505D5A16A21F4005141F480518C
:101C2000A162A16AC9040AD5E16A21F00601E16254
:101C300006E0A26A22F48012A2624968E9E7E06243
:101C400084F82400216A15488862216A1448C86211
:101C5000216A1448086321686FF002000860206858
:101C6000816841F480718160216843464A464C3165
:101C7000206A00F07BF920688168C1F3424107299E
:101C8000816803D041F48011816099E741F4A0019B
:101C9000FAE7000000240140002801406B1400080E
:101CA000D3140008B91400082DE9F05FC16B0A686D
:101CB00001680B68046C4FF0040808FA04F8844DBE
:101CC000844E854FDFF814C2DFF81492DFF814A2B7
:101CD000DFF814B2DFF814E218EA020F65D05FEA09
:101CE000437862D50A68920603D40A6822F0040297
:101CF0000A60DFF8F0814FF48062016808F114088F
:101D000013011402414524D9A9420DD0B1420FD08C
:101D1000B9421AD0614515D0494515D0514501D178
:101D2000120312E0594501D104220EE0714501D1A0
:101D300040220AE06D4D1435A94206D06B4A283284
:101D4000914201D11A4600E022466749091F0A6004
:101D500029E0A94213D0B14215D0B94220D0614543
:101D60001BD049451BD0514502D14FF4800217E0EA
:101D7000414502D14FF0806212E0594501D1042261
:101D80000EE0714501D140220AE0584D1435A942B8
:101D900006D0564A2832914201D11A4600E0224626
:101DA0004B4908394A60C16A71E04FF0020808FAED
:101DB00004F818EA020F70D05FEA83786DD50A68DC
:101DC000920606D40A6822F00A020A60012180F80D
:101DD0002110DFF810814FF40072016808F1140837
:101DE00013011402414524D9A9420DD0B1420FD0AC
:101DF000B9421AD0614515D0494515D0514501D198
:101E0000120312E0594501D102220EE0714501D1C1
:101E100020220AE0354D1435A94206D0334A283233
:101E2000914201D11A4600E022462F49091F0A605B
:101E300029E0A94213D0B14215D0B94220D0614562
:101E40001BD049451BD0514502D14FF4001217E079
:101E5000414502D14FF0007212E0594501D10222F2
:101E60000EE0714501D120220AE0204D1435A9422F
:101E700006D01E4A2832914201D11A4600E022467D
:101E8000134908394A60002180F82010816A00292E
:101E90001CD0BDE8F05F0847FFE70825A5401542C4
:101EA00014D01A0712D50A6822F00E020A6090F8C0
:101EB0004020C36B012101FA02F25A60816380F86D
:101EC0002110002180F82010016BE0E7BDE8F09FB1
:101ED000080002401C000240300002404400024062
:101EE000580002406C000240080402401C040240FA
:101EF00030B560B11A4B026814219A4209D2194BCD
:101F00001344B3FBF1F18900016417490AE0012091
:101F100030BD134B5B421344B3FBF1F18900016404
:101F20000F490839C163022180F82110136843F674
:101F3000F0718B43F0E901142143D0E902452C43B1
:101F4000214304692143446921438469214319439E
:101F5000116000214163012242770177084630BDBC
:101F600008040240F8FFFDBF0000024070B50446BF
:101F700090F82000002501280CD0012084F82000D2
:101F800094F821600020012E06D084F8200002255C
:101F9000284670BD022070BD022684F82160A0632F
:101FA0002068066826F0010606602046FFF7FCFA66
:101FB000E06A00282068016802D041F00E0106E0C6
:101FC00021F0040101602068016841F00A0101600C
:101FD0002068016841F001010160D9E72DE9F84F5F
:101FE000DFF8C8910024A9F1040B23460F2709F15B
:101FF000040AABF1040ED1E00125A54006EA050272
:10200000AA4276D1DFF8A8C14E68A6EB0C08664557
:102010002BD00DDC032E34D005DC36B3012E19D0C5
:10202000022E2FD11BE0112E16D0122E2AD119E02C
:10203000B8F5881F19D006DCB8F5803F15D0B8F583
:10204000801F1FD111E0B8F5001F0ED0B8F5041F96
:1020500018D10AE0CB6815E0CB681B1D12E0CB68F5
:1020600008330FE0CB680C330CE08B682BB1012BED
:102070004FF0080303D0456104E0042302E005614A
:1020800000E00023FF2A01D8064601E000F1040623
:102090004FEA840501D9A5F12005D6F8008007FA9A
:1020A00005FC28EA0C0803FA05F548EA0508C6F815
:1020B00000804D68ED0070D53E4DAE6946F00106DA
:1020C000AE61AD6924F0030605F0010500953A4DB7
:1020D00006EB050CDCF80850A607360F07FA06F8E1
:1020E00025EA0805DFF8D480404503D14FF0000809
:1020F00025E052E0DFF8C880404502D14FF00108EA
:102100001DE0DFF8C080404502D14FF0020816E024
:10211000DFF8B480404502D14FF003080FE0DFF84C
:10212000AC80404502D14FF0040808E0DFF8A08001
:10213000404502D14FF0050801E04FF0060808FACB
:1021400006F848EA0508CCF808804D68D9F8006020
:10215000ED024D4601D5164300E096432E604D68D2
:10216000DAF80060AD02554601D5164300E096430B
:102170002E604D68DBF80060AD035D4601D5164367
:1021800000E096432E604D68DEF80060ED03754672
:1021900001D5164300E096432E60641C0A6816467B
:1021A000E2407FF429AFBDE8F88F00000804014049
:1021B0000000111000100240000001400008014022
:1021C000000C0140001001400014014000180140C3
:1021D000001C01408068084000D0012070470AB10F
:1021E000016170470904FBE70148806870470000FF
:1021F0006C02002070B5040025D094F83D00002545
:1022000020B984F83C50204600F004FA242084F8D9
:102210003D002068016821F001010160206801682B
:1022200041F4004101602068016821F4004101602F
:1022300000F06AFC4D4A6168914201D84C4900E0C7
:102240004C49884201D2012070BD4B492368B0FB44
:10225000F1F15E6826F03F060E435E6063689342CC
:1022600006D94FF4967359434FF47A73B1FBF3F1E7
:102270002368491C1E6A26F03F06314319626168D3
:10228000914210D84900401EB0FBF1F2521CC2F33B
:102290000B02042A01D2042022E0B0FBF1F0401C22
:1022A000C0F30B001CE0A268F2B301EBC10303EB27
:1022B0000116431EB3FBF6F35B1C43F480431B057E
:1022C00049D092B301EBC10202EB0111401EB0FBF9
:1022D000F1F0401CC0F30B0040F4804040F400409B
:1022E0002168CA694CF6FF739A431043C861D4E968
:1022F000071001432068026822F0C0021143016008
:10230000D4E9030101432068826848F2FF339A430D
:1023100011438160D4E9050108432168CA6822F0AD
:10232000FF021043C86001E00EE016E0206801687B
:1023300041F0010101602564202084F83D002563FF
:1023400084F83E50002070BD01EB4106431EB3FBF4
:10235000F6F35B1CB3E70120C2E701EB4101401E2D
:10236000B0FBF1F0401CC0F30B00B7E7A086010002
:1023700080841E0000093D0040420F002DE9FF4F00
:1023800081B089460446FFF72FFF054694F83D00CB
:102390004FF0000820287DD1192301225049204602
:1023A000009501F055F8002874D194F83C000128FC
:1023B00070D0012084F83C0020680168C90703D16F
:1023C000016841F0010101602068016821F40061A9
:1023D0000160242084F83D00002626644148E06224
:1023E0004FF0011B20272068016841F480710160D3
:1023F0000095002259462046049B01F029F850B16F
:1024000020680068C00502D54FF4007020640320E6
:1024100005B0BDE8F08F216809F0FE000861FFF704
:10242000E3FE2168054648694969C0F34000C1F3ED
:1024300080214FF0A00A0FE0FFF7D6FE411B049861
:10244000814200D808B984F83DA0216848694969EB
:10245000C0F34000C1F3802194F83D20A02A02D0AF
:1024600008B90029E8D084F83D7020684169C94363
:10247000890716D4016841F4007101602068416940
:1024800080691923012216492046009500F0E0FFDB
:10249000B8B900E021E084F83D7084F83C60002089
:1024A000B6E7016841F40071016021686FF4806053
:1024B0004861192301220A492046009500F0C8FF0F
:1024C00008B10120A4E7039808F1010880458AD3E8
:1024D00084F83D7084F83C60F3E7022098E7000040
:1024E000020010000000FFFF2DE9F84F1F46904644
:1024F0008A460446DDF82890FFF776FE054694F8F4
:102500003D0020287FD11923012240492046009513
:1025100000F09EFF002876D194F83C00012872D08C
:10252000012084F83C0020680168C90703D10168D4
:1025300041F0010101602068016821F4006101603F
:10254000212084F83D00102084F83E0000262664F7
:10255000C4F824806785608D20852D48E0622B4675
:102560004A465146204600F0F9FE90B9206841697C
:102570008069009036E02A464946204601F00EF870
:1025800050B1206C042804D12068016841F4007126
:1025900001600120BDE8F88F606A21680078086159
:1025A000606A401C6062618D491E6185218D491EF3
:1025B00089B2218522685369DB435B070BD451B193
:1025C00000781061606A401C6062608D401E60850A
:1025D000208D401E20852A464946204600F00CFFEB
:1025E0000028CED1208D0028C5D154F83D0B0168BC
:1025F00041F400710160202004F81E09E677667737
:102600000020C7E7FFE70220C4E700000200100037
:102610000000FFFF10B586B00021009101910291EA
:10262000039100680F4988421AD10F4CA06940F00D
:102630000800A061A069694600F008000490C0206D
:10264000009012200190032003900848FFF7C6FC79
:10265000E06940F40010E061E06900F400100490CB
:1026600006B010BD0054004000100240000C0140B4
:102670000248816802781144816070476C02002032
:10268000074810B5016841F010010160032000F017
:10269000A1F80F2000F006F800F04AF8002010BD65
:1026A0000020024030B505461C4887B0816941F4DE
:1026B00000618161806906A900F40060009001A8B2
:1026C00000F002FA00F030FA1549164AB0FBF1F1B9
:1026D0001548491E0260416040F2E7320021C0E91E
:1026E00003218160816100F079FC040012D10E4861
:1026F00000F0A2FC04000DD1192000F03DF8102DCF
:1027000007D200222946192000F044F80748056046
:1027100000E0012407B0204630BD00000010024058
:1027200040420F00002C01400C0B002070020020E2
:102730000F4808B5816941F001018161816901F0AB
:1027400001010091C16941F08051C161C06900225D
:1027500000F0805000900F21901E00F01BF80548FB
:10276000416821F0E06141F00071416008BD000066
:102770000010024000000140002809DB00F01F02A9
:10278000012191404009800000F1E020C0F80011D3
:1027900070470000F0B40E4B1B680C46C3F30223D5
:1027A000C3F10705042D00D90425191D072901D2FD
:1027B000002300E0DB1E012606FA05F1491E214038
:1027C00099409E40761E16403143F0BC01F02BBB71
:1027D0000CED00E0064900F0070208684FF6FF0321
:1027E000184040EA0220034A104308607047000086
:1027F0000CED00E00000FA0510B501460020284C61
:1028000004292FD00BDC012930D0022929D100F076
:102810008BF96168C1F38131491C49001FE0082927
:1028200020D010291DD161682268D20119D51D4818
:10283000C1F38342C903805C0AD56168194AC1F3B8
:102840004041921E515C184AB2FBF1F1484301E04D
:10285000164948436168490203D440000321B0FB94
:10286000F1F010BDBDE8104000F06EB9226AC2F36D
:102870000121012903D1920701D5C80310BD022906
:1028800005D1626A920702D549F6404010BD03297E
:10289000FCD121688903F9D54FF2244010BD000016
:1028A000001002400C5D000800127A0000093D0093
:1028B0002DE9F84305460078354CC00754D0E0694F
:1028C0000026C00008D4E06940F08050E061E06973
:1028D000012600F0805000902E480168C90512D4EE
:1028E0000168804641F480710160FFF77DFC074676
:1028F00005E000BFFFF778FCC01B642823D8D8F898
:102900000000C005F6D5206A10F4407021D0A988D7
:1029100001F4407181421CD0206A1F49012220F439
:1029200040700A6000220A602062C00711D0FFF7E1
:102930005BFC074641F2883808E000BFFFF754FC13
:10294000C11B414502D90320BDE8F883206A8007F6
:10295000F4D5206A696820F44070084320621EB1F3
:10296000E06920F08050E0612878800705D5606834
:10297000A96820F44040084360602878C00605D567
:102980006068696920F48000084360600020DBE72C
:102990000010024000700040400442422DE9F04720
:1029A0000F46050061D0434E306800F00700B84282
:1029B00009D2306820F0070038433060306800F0FA
:1029C0000700B84251D128683B4C810712D5400717
:1029D00003D5606840F4E06060602878000703D5A4
:1029E000606840F4605060606068A96820F0F000A2
:1029F000084360602878C00728D06868012810D094
:102A00002168022810D0890700292EDA616821F098
:102A1000030101436160FFF7E7FB804641F288391B
:102A20000DE021688903EFE78901EDE7FFF7DCFBA3
:102A3000A0EB0801494502D90320BDE8F087606892
:102A4000696800F00C00B0EB810FEFD1306800F046
:102A50000700B8420BD9306820F0070038433060D7
:102A6000306800F00700B84201D00120E5E728787F
:102A7000400705D56068E96820F4E06008436060BD
:102A80002878000706D56068296920F4605040EA7C
:102A9000C100606000F058F86168084AC1F3031192
:102AA000515CC8400649086006480068FFF7FAFD17
:102AB0000020C2E700200240001002401C5D000818
:102AC00078020020700200200F2202600C4A536836
:102AD00003F003034360536803F0F003836053681B
:102AE00003F4E063C36052684FF4E06303EAD20288
:102AF00002610448006800F00700086070470000A9
:102B0000001002400020024004480549006849685E
:102B1000044AC1F30221515CC8407047780200208A
:102B2000001002402C5D000804480549006849680F
:102B3000044AC1F3C221515CC840704778020020AA
:102B4000001002402C5D00080E4A51680E4801F04A
:102B50000C03042B11D0082B0FD10C48C1F3834375
:102B6000C903C05C0AD55168084AC1F34041921EAE
:102B7000515C054A5043B0FBF1F0704704494843AB
:102B8000704700000010024000127A00FA5C000852
:102B900000093D002DE9F84F040070D02078C04DA9
:102BA000C00749D06868C0F38100012807D0686871
:102BB000C0F38100022809D16868C00306D52868DF
:102BC000800339D560680028E7D035E06068B0F54B
:102BD000803F0BD010B1B0F5A02F11D0286820F4A1
:102BE00080302860286820F4802002E0286840F4C3
:102BF00080302860606890B1FFF7F6FA06460AE078
:102C0000286840F480202860F0E700BFFFF7ECFA66
:102C1000801B642873D828688003F7D50CE0FFF781
:102C2000E3FA064605E000BFFFF7DEFA801B6428E2
:102C3000F0D828688003F7D420789A4E80074FF0A8
:102C400001094FF0000839D5686810F00C0F07D063
:102C50006868C0F38100022809D16868C00306D4FF
:102C60002868800714D52069012808D110E0206960
:102C7000B0B1C6F80090FFF7B7FA074605E00AE1E1
:102C8000FFF7B2FAC01B0228C4D828688007F7D51E
:102C90002868616920F0F80040EAC10028600DE072
:102CA000C6F80080FFF7A0FA074604E0FFF79CFA99
:102CB000C01B022823D828688007F7D42078000793
:102CC0002CD57948A169D9B1C0F80090FFF78CFAEA
:102CD000074604E0FFF788FAC01B02280FD8686A8D
:102CE0008007F7D571484FF4FA510068B0FBF1F056
:102CF000009000BF0098411E0091FAD20EE080E0E3
:102D0000C0F80080FFF770FA074604E0FFF76CFA9E
:102D1000C01B022875D8686A8007F7D4207840075E
:102D200060D5E8690027C00008D4E86940F0805009
:102D3000E861E869012700F0805000905C48016874
:102D4000C90513D40168834641F480710160FFF71F
:102D50004BFA824606E000BFFFF746FAA0EB0A00F6
:102D600064284ED8DBF80000C005F5D5E0680128DE
:102D70000AD008B1052813D0286A20F00100286283
:102D8000286A20F0040002E0286A40F0010028626E
:102D9000E06841F2883B98B1FFF726FA82460BE0E3
:102DA000286A40F004002862EEE700BFFFF71CFA33
:102DB000A0EB0A0159455AD8286A8007F6D50CE0DD
:102DC000FFF712FA824605E0FFF70EFAA0EB0A01C0
:102DD00059454CD8286A8007F6D41FB1E86920F01D
:102DE0008050E861E06988B36968C1F38101022914
:102DF00044D00228C6F8608004D0FFF7F5F90446F5
:102E000038E034E0FFF7F0F9074604E0FFF7ECF9AB
:102E1000C01B02282BD828688001F7D4206AB0F59F
:102E2000803F05D16868A16820F4003008436860DD
:102E3000D4E908010843696821F474110843686003
:102E4000C6F86090FFF7D0F9044606E025E000BF21
:102E5000FFF7CAF9001B022809D828688001F7D5B6
:102E60001BE000BFFFF7C0F9001B022802D90320B6
:102E7000BDE8F88F28688001F4D40EE00128F7D06F
:102E80006868226A00F48031914204D1616A00F4DA
:102E90007010884201D00120EAE70020E8E7000036
:102EA00000100240000042428004424278020020AA
:102EB0000070004070B5040009D0606A002540B180
:102EC00025616561A56294F8510040B10CE00120D4
:102ED00070BD6068B0F5827FF4D0E561F2E784F8F8
:102EE0005050204600F040F8022084F8510020683D
:102EF000016821F040010160A088218900F48270FE
:102F000001F404410843A18901F400610843217CD4
:102F100001F002010843217D01F001010843218BEA
:102F200001F400710843217F01F03801084394F84F
:102F3000201001F080010843218D01F40051084365
:102F400021680860A069042101EA104021684860F6
:102F50002068C16921F40061C1616565012084F8C0
:102F60005100002070BD000030B585B000240094F1
:102F700001940294039400681449884223D11448B0
:102F8000C16941F40041C161C16901F4004104918A
:102F9000816941F00801816180690E4D00F00800EF
:102FA000049028200090022001900320039069469D
:102FB0002846FFF713F81020CDE90004694628469B
:102FC0000294FFF70BF805B030BD0000003C004054
:102FD00000100240000C01407047704710B504001B
:102FE00003D094F83D0010B107E0012010BD00208F
:102FF00084F83C00204600F01EF8022084F83D00D2
:10300000211D206800F0B4FD012084F8460084F8FA
:103010003E0084F83F0084F8400084F8410084F8C2
:10302000420084F8430084F8440084F8450084F8A2
:103030003D00002010BD704790F83D10012901D0DF
:1030400001207047022180F83D100168CA6842F0F3
:103050000102CA6000680E4988420ED00D498842BC
:103060000BD0B0F1804F08D00B49884205D00B49F6
:10307000884202D00A49884204D1816801F00701E0
:10308000062903D0016841F001010160002070476A
:10309000002C0140003401400004004000080040C2
:1030A000000C0040704770B50446006801694FF09D
:1030B0000005C943890715D4C168C943890711D4DC
:1030C000E91E016101202077206880698007204681
:1030D00002D0FFF7E7FF04E000F098F8204600F088
:1030E00096F8257720680169C943490717D4C16854
:1030F000C943490713D46FF004010161022020770E
:103100002068806910F4407F204602D0FFF7CAFF94
:1031100004E000F07BF8204600F079F8257720687D
:103120000169C943090716D4C168C943090712D404
:103130006FF008010161042020772068C0698007D2
:10314000204602D0FFF7AEFF04E000F05FF8204613
:1031500000F05DF8257720680169C943C90617D4D6
:10316000C168C943C90613D46FF01001016108207A
:1031700020772068C06910F4407F204602D0FFF716
:1031800091FF04E000F042F8204600F040F8257777
:1031900020680169C943C90708D1C168C943C90783
:1031A00004D1891E0161204600F032F820680169CF
:1031B000C943090609D4C168C943090605D46FF09B
:1031C000800101612046FFF707FF20680169C943BC
:1031D000490609D4C168C943490605D46FF04001C6
:1031E0000161204600F01EF820680169C943890684
:1031F0000BD4C168C943890607D46FF0200101616F
:103200002046BDE87040FFF7E8BE70BD70477047CC
:1032100000680349884201D1FFF72ABA70470000CD
:10322000002C0140704770B5040004D094F84100B0
:10323000002510B106E0012070BD84F84050204602
:1032400000F024F8242084F841002068C16821F4AB
:103250000051C160204600F075FD2068016921F42D
:10326000904101612068416921F02A014161206893
:10327000C16841F40051C1606564202084F84100B8
:1032800084F842006563002070BD000070B586B010
:1032900000250646009501950295039500681E4994
:1032A000884237D11D49886940F480408861886927
:1032B00000F480400490886940F0040088618869C7
:1032C000174C00F004000490481500900220019073
:1032D0000320039069462046FEF780FE2015CDE9C5
:1032E0000005694620460295FEF778FE0E4C0D4813
:1032F00020601020C4E901058020C4E90305656150
:10330000A5612046E561FEF7F3FD08B1FEF762F91D
:10331000B463666206B070BD003801400010024020
:10332000000801404400024074080020FEE70168E4
:103330004A69D24352050FD46FF480624A6100217A
:1033400040F8301F202242738173026942F0040268
:10335000026101730120704700207047F8B50446F0
:10336000C06A1E460D461746082807D0012805D01A
:1033700010F5803F02D0206B122804D1206801682C
:1033800041F480710160134600224FF00111204684
:10339000009600F05DF840B120680068C00502D5D5
:1033A0004FF4007020640320F8BD2069B0F5804F11
:1033B0000ED00620216800EAD51040F0F000086128
:1033C00033463A460B49204600F08AF878B902E0C5
:1033D00005F0FE0000E0E8B22168086105493346C7
:1033E0003A46891F204600F07BF80028DCD00120F7
:1033F000F8BD00000800010070B516460D460446F1
:103400001EE02046FFF793FF08B1012070BD681C45
:1034100016D0FEF7E9FE801BA84200D885B92068C7
:103420004069C04340070BD5002044F8300F2021ED
:103430006173A073216941F0200121612073E4E7E9
:1034400020684069C0434007DBD4002070BD000005
:103450002DE9F047984617460D460446C1F3074646
:10346000DDF820902AE000BFB8F1FF3F26D0FEF73C
:10347000BBFEA0EB0901414502D8B8F1000F1DD1F8
:103480002068012E16D0806925EA00000004000C97
:1034900012D00020B84211D1002044F8300F202172
:1034A0006173A073216941F0200121612073012023
:1034B000BDE8F0874069E7E70120EBE72068012ECF
:1034C0000AD0806925EA00000004000C06D0002024
:1034D000B842C9D00020EBE74069F3E70120F7E7E5
:1034E0002DE9F047984616460D4604464FF0000970
:1034F0004FF0200AC1F3074723E020684069C0432A
:10350000400515D42068016841F40071016021680C
:103510006FF480604861C4F8309084F83DA084F86E
:103520003E90216C41F00401216484F83C9021E03C
:10353000701C06D0FEF758FEA0EB0800B04203D87E
:1035400016B1012F1FD021E02068012F15D080690E
:1035500025EA00000004000C18D000BF44F8309F9A
:1035600084F80DA084F80E90216941F020012161BA
:1035700084F80C900120BDE8F087406925EA00003E
:103580000004000CEAD12068406901E020688069ED
:1035900025EA00000004000CAFD1ECE770B5164638
:1035A0000D4604461EE02046FFF7C1FE08B101208B
:1035B00070BD681C16D0FEF717FE801BA84200D80D
:1035C00085B920684069C04300060BD5002044F847
:1035D000300F20216173A073216941F02001216126
:1035E0002073E4E720684069C0430006DBD4002074
:1035F00070BD00003EB50024104800940194029470
:103600000D498460016004730475012505614FF460
:1036100060214460C161FEF7CFF808B172B6FEE7E1
:10362000CDE90045694605480294FEF741F80028B7
:1036300001D072B6FEE73EBD00240140DC0600204A
:103640003EB5002410480094019402940D49846012
:10365000016004730475012505614FF46021446025
:10366000C161FEF7A9F808B172B6FEE70095CDE991
:10367000015469460448FEF71BF8002801D072B6D1
:10368000FEE73EBD002801400C070020F0B585B0E4
:10369000002420480094019402940394816941F02D
:1036A00010018161816901F010010491816941F08B
:1036B00020018161816901F020010491816941F05B
:1036C00004018161816901F004010491816941F083
:1036D000080181618069104F00F008004FF48056A6
:1036E0000490002231463846FEF779FD4FF41F5012
:1036F00002258DE8310069463846FEF76FFC01AAC5
:103700000120009682E8310069463846FEF766FCE3
:1037100005B0F0BD00100240001001400E4810B589
:103720000C4901604FF48271416000218160C160E9
:103730004FF400720161C0E90512C161016241628A
:1037400081620A21C162FFF7B5FB002801D072B681
:10375000FEE710BD003C004090070020FEE700009F
:1037600070B50D46044600F032F80021084600F01E
:1037700063F80122134904F1080000F067F91621EB
:10378000002000F059F801220E4904F11C0000F05D
:103790005DF92D21002000F04FF80122094904F1C4
:1037A000380000F053F9162005FB00F1002000F06E
:1037B00043F80122034904A000F048F9BDE8704035
:1037C00000F058B9080000203E000000FEE710B5E8
:1037D000002000F025F8BDE8104000F04BB90000D3
:1037E00070B5802813D2402911D20B4B012401F06F
:1037F00007051E79AC40094BC90800EBC1100EB19A
:1038000032B101E0012A03D0195CA143195470BD03
:10381000195C2143FAE7000000000020DC020020D0
:1038200028B1FF224FF480610248FCF734BE002229
:10383000F8E70000DC020020014A10805180704748
:103840000000002010B500F0E3FD44F620630122E3
:1038500078215448FEF792FD08B1002010BD40F6D3
:10386000C210401EFDD1AE220021782000F0D6FD0E
:1038700020220021782000F0D1FD102200217820A4
:1038800000F0CCFDB0220021782000F0C7FDC82256
:103890000021782000F0C2FD00221146782000F0BF
:1038A000BDFD10220021782000F0B8FD402200214B
:1038B000782000F0B3FD81220021782000F0AEFDD9
:1038C000FF220021782000F0A9FDA122002178200C
:1038D00000F0A4FDA6220021782000F09FFDA82280
:1038E0000021782000F09AFD3F220021782000F08E
:1038F00095FDA4220021782000F090FDD322002124
:10390000782000F08BFD00221146782000F086FD23
:10391000D5220021782000F081FDF02200217820BE
:1039200000F07CFDD9220021782000F077FD2222D2
:103930000021782000F072FDDA220021782000F0CA
:103940006DFD12220021782000F068FDDB220021AD
:10395000782000F063FD20220021782000F05EFD39
:103960008D220021782000F059FD142200217820BA
:1039700000F054FDAF220021782000F04FFD2E22F0
:103980000021782000F04AFD0020FFF749FF00F0F9
:1039900071F80548002101804180012141710846EC
:1039A00010BD00003C070020000000202DE9F0477A
:1039B000814625480D46924601882A78114480297F
:1039C00005D28046408869780844402802D3002008
:1039D000BDE8F08700262AE0A9F1200101FB006084
:1039E0006A68002432F810701DE000BF07FA04F086
:1039F000000409D5B8F80210B8F80000314420449A
:103A000089B280B252460BE0BAF1000F1AD0002200
:103A1000B8F80210B8F800003144204489B280B2EE
:103A2000FFF7DEFE641C2878A042DFD8761C687899
:103A3000B042D1D8B8F800102A7848461144A8F806
:103A40000010C5E70122E3E70000002070B515462D
:103A50000E46044609E02A463146FFF7A7FF2178C3
:103A6000884201D0C8B270BD641C20780028F2D111
:103A7000C0B270BD70B5104D002400BF04F1B0009D
:103A8000C2B20021782000F0C9FC00221146782043
:103A900000F0C4FC10220021782000F0BFFC05EBF0
:103AA000C41280234021782000F0C8FC641CE4B2DA
:103AB000082CE3D370BD0000DC02002008B101280F
:103AC00003D1012901D100F0D5BC704710B55020B9
:103AD00080F31188BFF34F8FBFF36F8F00F01CFF8F
:103AE00018B104494FF080500860002080F311881D
:103AF00010BD000004ED00E030B595B02821684607
:103B0000FCF7D1FC14210AA8FCF7CDFC18210FA862
:103B1000FCF7C9FC01200225049000951020002428
:103B2000059007946846FFF735F808B172B6FEE7CE
:103B30000F20CDE90A040C940D9400210AA80E94DC
:103B4000FEF72CFF08B172B6FEE70FA80F9511948F
:103B5000FEF7AEFE002801D072B6FEE715B030BD0C
:103B6000704700000148FFF79EBA00000C0B0020D0
:103B7000F0B502681C4B1D4D1D4E1E4F1E4C4FF0E4
:103B8000804C984209D0A04207D0604505D0A84299
:103B900003D0B04201D0B84204D122F0700E4A687E
:103BA00042EA0E02984209D0A04207D0604505D0F3
:103BB000A84203D0B04201D0B84203D122F44075EC
:103BC000CA682A434D6922F080022A4302608A684B
:103BD000C2620A688262984201D0A04201D109699A
:103BE000016301214161F0BD002C0140000400404F
:103BF00000080040000C004000340140012204494C
:103C00000448FDF7CBFF0A2000F0ACF9F6E700000E
:103C10001C000020DC060020344C012529462046EB
:103C2000FFF79EFD324E2F024FF400784FF480696B
:103C300040213046FEF7CEFA012807D1022D0CD0E4
:103C40006D1CEDB229462046FFF78AFD80213046E3
:103C5000FEF7C0FA012802D009E00125F1E7012DA5
:103C60000CD06D1EEDB229462046FFF779FD39468E
:103C70003046FEF7AFFA012802D011E00225F1E745
:103C8000012D02D0022D07D103E0206B20B10446A4
:103C900002E0206B00B1E46C29462046FFF760FD8E
:103CA00041463046FEF796FA012806D1606800B119
:103CB000044629462046FFF753FD49463046FEF7A5
:103CC00089FA01280ED1012D02D0022D0AD104E07B
:103CD000626B3AB12078012103E0226D12B12078A5
:103CE000002190470A2000F03DF9A1E720000020C4
:103CF00000100140104808B5816941F0FC01816164
:103D00000F490E4808600E4D41F270760C350024C4
:103D1000286880F004002860002000940094009936
:103D2000491C0091B142FAD3401C80B26428F5D3FB
:103D30000A2000F017F9EBE7001002404443444426
:103D40000008014070B5044600680169E26821F48A
:103D50004051114301612169A0680843616908432A
:103D60002168CA6841F20C639A430243CA60206822
:103D70004169A26921F44071114341611E492068E3
:103D8000884202D1FEF7D0FE01E0FEF7BDFE00EB57
:103D9000C00101EB0012606864218000B2FBF0F307
:103DA000B3FBF1F36FF018067343B2FBF0F5B2FB0F
:103DB000F0F605EB8305322303EB0515B5FBF1F5B2
:103DC000B6FBF1F605F0F00505EB0615B2FBF0F6D3
:103DD000B2FBF0F0B0FBF1F06FF01802504306EBCD
:103DE000800003EB0010B0FBF1F0216800F00F0041
:103DF0002844886070BD000000380140FEE749009B
:103E000050EAC12018BF04204A0D18BF40F001003D
:103E100040F2FF72B2EB515F08BF40F00200012890
:103E200008BF052070470907090E002804DB00F1D0
:103E3000E02080F80014704700F00F0000F1E0204F
:103E400080F8141D704730380A2801D201207047CD
:103E50000020704796B0FEF713FCFFF74DFEFFF70A
:103E600015FC3648416941F0010141614069002279
:103E700000F00100159005210B20FEF78BFC0B20B4
:103E8000FEF77AFC002205210E20FEF783FC0E20AF
:103E9000FEF772FC2B482A49002401604FF4E131FF
:103EA000C0E901140C21C460C0E904418461C4610B
:103EB000FFF7B9F908B172B6FEE7FFF79BFBFFF712
:103EC000BFFB20482049AC3801602049C0E90114FB
:103ED0004FF48041C0E9034144618461C4610462DC
:103EE000FEF788F908B172B6FEE7FFF717FCFFF797
:103EF000A9FC1C2216496846FCF79BFA002168467B
:103F000000F03CF8134C12491C2220601C3107A819
:103F1000FCF78FFA002107A800F030F80C49606028
:103F20001C2238310EA8FCF784FA00210EA800F0FC
:103F300025F8A06000F01DF8FEE700000010024028
:103F400000380140E807002000540040801A0600B5
:103F5000A45C00081000002001460020842900D045
:103F6000C81C704710B500B9012000F097FB002075
:103F700010BD10B500F0B8FB002010BD7FB50D4698
:103F800004464169B0F9080081B1A16971B1FFF738
:103F9000E3FFD4E905128DE80700D4E900102B46B1
:103FA000226900F08EFC039004B070BDFFF7D4FFCF
:103FB00003A9CDE90001208A2B4682B2D4E9001082
:103FC00000F052FC012801D00020EDE70398EBE758
:103FD0002DE9F041184C0F46054666692068001D22
:103FE00000F098FA38B9206890F82C100120884029
:103FF000A1698143A161681C07D137B12168BDE87F
:10400000F0410E48091D00F0C9BA20683544B54298
:104010004560216805D2A068BDE8F041091D00F0A7
:10402000A5BA6068091D00F0A1FA206B854200D294
:104030002563BDE8F08100007C020020300C0020E8
:104040002DE9F041054600F0B5FA2E4C2069401CE0
:10405000206120682C4F10B1E06940B32DE025604D
:104060002069012829D1002606EB860007EB800095
:1040700000F06EFA761C072EF6D323488C3000F041
:1040800067FA2148A03000F063FA1F48B43000F00E
:104090005FFA1D48C83000F05BFA1B48DC3000F0C6
:1040A00057FA19488C3060601430A06005E0206831
:1040B000E96AC06A884200D82560E06A401CE06274
:1040C000E96A0120A26988401043A06101EB8100E8
:1040D00007EB8000291D00F061FA00F08BFAE0691F
:1040E00000280CD02068E96AC06A884207D20749D4
:1040F0004FF080500860BFF34F8FBFF36F8FBDE864
:10410000F08100007C020020540B002004ED00E050
:1041100010B5044690F8510058B101280CD002287F
:104120000FD0502080F31188BFF34F8FBFF36F8FF4
:10413000FEE7206B00F072FA2046BDE8104000F068
:104140006DBA10BD10484FF44061420706D0C01D43
:104150000D4920F00700411AC1F540610B4A0023C8
:104160000144C2E900030839103A21F00701116047
:104170004B600B600B1AC0E9001393604FF00040D6
:104180005360D06070470000440C0020C80200203B
:10419000144E154CA6F1C8074FF08058DFF84C902C
:1041A00012E000BF00F006FAF068C568281D00F0B4
:1041B000B1F92069401E2061E068401EE06000F017
:1041C00019FA2846FFF7A4FFE0680028EAD138680A
:1041D0000128F9D9C9F80080BFF34F8FBFF36F8F63
:1041E000F2E700001C0C00207C02002004ED00E03F
:1041F0002DE9F0479A46DDE9098481466FF0030313
:10420000206B03EB82021044089D20F00706700724
:1042100007D0502080F31188BFF34F8FBFF36F8F0B
:10422000FEE723180A5C83F834200A5C12B1401CB4
:104230001028F6D3002784F84370072D00D30625F5
:10424000E562C4E91157201D00F08DF904F1180052
:1042500000F089F92461C5F107006462A061E76498
:1042600084F8507052464946304600F0BFF820604E
:10427000B8F1000F01D0C8F80040BDE8F087000099
:1042800030B5114900E011460A688242FBD34B6801
:104290005C18844203D1406818444860084643686B
:1042A0001C18944209D1084C103C2468A24209D041
:1042B00052681A4442600A6812680260814200D063
:1042C000086030BD0460F9E7C80200200648416874
:1042D000096829B14168C968C968496801637047BC
:1042E0004FF0FF31FAE700007C02002008484068E8
:1042F000401C4FF0500080F3118804D0BFF34F8F63
:10430000BFF36F8FFEE7BFF34F8FBFF36F8FFEE7F3
:10431000D00200202DE9F0410546002700F01AFAEE
:10432000314E306808B9FFF70DFFF06805424BD1F8
:10433000C5B3083568070ED005F00700C0F10800C6
:104340000544680707D0502080F31188BFF34F8FD2
:10435000BFF36F8FFEE72DB37068854234D82248D3
:10436000103001460C6801E020460C466168A94205
:1043700002D221680029F7D131688C4224D0076825
:104380002168016060680837411B10290FD9601946
:10439000420708D0502080F31188BFF34F8FBFF33E
:1043A0006F8FFEE710E041606560FFF769FF6168AD
:1043B0007068401A7060B268904200D2B060F068D5
:1043C00001430020C4E9000100F00AFB780707D090
:1043D000502080F31188BFF34F8FBFF36F8FFEE73C
:1043E0003846BDE8F0810000B802002010B5031F78
:1043F0004FF080741C601B1F21F001011960191F10
:10440000024B0B60143940380A6010BDED420008C1
:104410000148401EFDD1704790D003001CB5022317
:104420008DF804100A2100918DF80520014601AA9B
:104430000148FEF759F81CBD3C07002070B5C2B01A
:1044400000248DF8041001A904E0155D0E19641C08
:104450007570E4B29C42F8D30A2100915B1C0146BE
:104460009BB201AA0248FEF73FF842B070BD0000BF
:104470003C0700200EB51F48FDF7AEF81D48FDF7BC
:104480002DFB4FF47A711B48FDF78AFA1948FDF7A6
:1044900090F980B200F056FB6FF00B0200F00EFDB9
:1044A0004FF06632144B00F061FB0022134B00F01A
:1044B0005DFB00F00DFB00F057FC02460B4610A11F
:1044C0006846FBF71BFFFFF782F91E210020FFF76C
:1044D000B3F901220C490DA0FFF7B8FA1E213C20C8
:1044E000FFF7AAF9012208496846FFF7AFFAFFF77C
:1044F000C1FA0EBD0C07002066660A400000594054
:10450000252E326600000000080000204C49474874
:10451000543A0000D0E9013201699A60D0E90123E0
:104520005A604A68824201D182684A600022026170
:104530000868401E0860086870470000034B03606D
:1045400003F154000860802010607047B808002014
:1045500000F108014FF0FF32C0E90112C1600161B2
:1045600000210160704700210161704730B50B6880
:104570005A1C02D000F1080202E0026904E022465F
:10458000546825689D42FAD953684B6099608A60E7
:10459000516008610168491C016030BD42684A6091
:1045A00093688B6093685960916008610168491C49
:1045B00001607047502080F31188BFF34F8FBFF325
:1045C0006F8F0A494868401C486001280CD1084890
:1045D000006810F0FF0F07D0502080F31188BFF360
:1045E0004F8FBFF36F8FFEE770470000D0020020AF
:1045F00004ED00E00849486828B1401E486001D138
:1046000080F311887047502080F31188BFF34F8FDB
:10461000BFF36F8FFEE70000D002002070B50028C6
:1046200027D0144DA0F108046168E868014207D161
:10463000502080F31188BFF34F8FBFF36F8FFEE7D9
:1046400022683AB1502080F31188BFF34F8FBFF337
:104650006F8FFEE78143616000F07CF860686968F5
:10466000084468602046FFF70BFEBDE8704000F08C
:10467000B7B970BDB80200204FF0E0200021016101
:10468000816105494FF47A720968B1FBF2F1491E64
:1046900041610721016170477802002010B50200D6
:1046A00014D00F48806B38B1502080F31188BFF3CD
:1046B0004F8FBFF36F8FFEE700F04CF800211046DC
:1046C000FFF786FC00F08CF9002807D105494FF070
:1046D00080500860BFF34F8FBFF36F8F10BD000095
:1046E0007C02002004ED00E010B586B000240394A5
:1046F00005AA04A903A80494FFF720FFDDE903013C
:104700000094CDE9011000230EA11048059A00F095
:10471000D8F80F490028486311D0502080F3118841
:10472000BFF34F8FBFF36F8F4FF0FF30086301204F
:10473000C8614C6106B0BDE8104000F041B806B059
:1047400010BD000049444C450000000091410008A4
:104750007C0200200248816B491C81637047000085
:104760007C0200201448816B11B101214162704725
:10477000002141628169B1FA81F1C1F11F0101EBB0
:1047800081020E4951F822306BB101EB820101F137
:1047900008034A6852684A609A4201D152684A60E6
:1047A000D16801607047502080F31188BFF34F8FAC
:1047B000BFF36F8FFEE700007C020020540B002047
:1047C0001CB5264908780190FF20087008788DF8FC
:1047D00000009DF800009DF8002000F0F0009042DD
:1047E00007D0502080F31188BFF34F8FBFF36F8F36
:1047F000FEE79DF800001A4B00F0500018700720EB
:10480000986005E09DF8002052008DF80020401EC1
:104810009DF800201206F5D49860032807D0502098
:1048200080F31188BFF34F8FBFF36F8FFEE74FF414
:1048300040709860019808700A48016841F470015E
:104840000160016841F070410160FFF715FF002031
:104850005860FBF7F9FC00201CBD000000E400E0FC
:10486000D002002020ED00E02DE9FF5F8346DDE966
:104870000E87994616468A469000FFF74BFD0500C5
:104880001CD05420FFF746FD040014D000202563FF
:1048900084F85100CDE90240CDE900874B4632460D
:1048A00051465846FFF7A4FC2046FFF7C9FB0120FC
:1048B00004B0BDE8F09F2846FFF7B0FE4FF0FF3090
:1048C000F6E7F0B585B0DDE90B640A9DA6B1DCB171
:1048D000542700972663022684F85160002604AF0F
:1048E000CDE90246CDE90057FFF782FC2046FFF7ED
:1048F000A7FB049805B0F0BD502080F31188BFF3EA
:104900004F8FBFF36F8FFEE7502080F31188BFF306
:104910004F8FBFF36F8FFEE72DE9F0412E4C00273C
:10492000A06B40B1206A401C2062606A00B1012780
:104930003846BDE8F0816669761C666113D160680F
:10494000006838B1502080F31188BFF34F8FBFF358
:104950006F8FFEE76068A1686160A060A06A401C7C
:10496000A062FFF7B3FC206BDFF87080864209D3AA
:104970006068006880B16068C068C5686868864221
:104980000DD220632068C06A00EB800158F8210036
:104990000128CAD90127C8E74FF0FF30F1E7281DE9
:1049A000FFF7B8FDA86A18B105F11800FFF7B2FDCE
:1049B000E86A0121A26981401143A16100EB8001F5
:1049C00008EB8100291DFFF7E9FDE86A2168C96A43
:1049D0008842CDD30127CBE77C020020540B002076
:1049E0002DE9F0472C4D00242746A86B38B1FFF77E
:1049F000E1FDA86B401EA863A86B40B146E05020C3
:104A000080F31188BFF34F8FBFF36F8FFEE72969E3
:104A1000224E0120D1B3A6F1B40980463068E8B136
:104A2000F068C46804F11800FFF774FD201DFFF75B
:104A300071FDE06AAA6908FA00F11143A96100EB6F
:104A4000800109EB8100211DFFF7A8FDE06A2968BC
:104A5000C96A8842E2D3C5F82480DFE70CB1FFF7CA
:104A600035FC2C6A44B14646FFF756FF00B16E6232
:104A7000641EF9D100202862686A38B1084901270C
:104A800038070860BFF34F8FBFF36F8FFFF7B2FD9A
:104A90003846BDE8F08700007C020020080C0020AA
:104AA00004ED00E010B500290AD00878002807D0EE
:104AB00005487844FCF79EF8002801D0002010BD7E
:104AC0000248784410BD0000661300005E13000029
:104AD00021F00042A2F16052B2F5801F01F00043C4
:104AE00028BFD2F17F6C0BD95FEA001C43EAC202F7
:104AF00042EB507018BF704728BF20F0010070478C
:104B0000B2F5801FBCBF184670474FEA410C1CF538
:104B1000001F02D2084600F098B970B500F0D0F836
:104B200000000089FFF7F6BF4FF00040A0F58000BD
:104B30007047000002494FF0000000F08DB900BF3F
:104B40000000F87FB0FA80F310FA03F10AD0C3F145
:104B50001D0303F580634FEA41504FEA035202EB15
:104B6000D12170474FF0000070470000DFF848C1C6
:104B700070B51CEA111E1EBF1CEA13159EEA0C0F2D
:104B800095EA0C0F00F06F8081EA030423EA4C13CE
:104B90004EEAD47E21EA4C1141F4801143F4801393
:104BA000AE44A1FB024CA0FB0365AEF17F7E36193B
:104BB00055EB0C05A1FB034C4CF10003A0FB021CC0
:104BC00016EB0C06654153F10003094218BF46F08D
:104BD000010613F4007F0BD14FEA03314FEA053091
:104BE000340341EA155140EA16506FF003020AE01F
:104BF0004FEAC3214FEAC520F40241EA555140EA89
:104C000056506FF0020202EB2E4201EB025585EA8C
:104C1000CE710AD05FEA440C18BF24F0004450F172
:104C2000000041F1000120EAD47040F2FE7C6245B0
:104C300000D270BDA84214BF4FF080444FF04044F2
:104C4000002E08BF0024BEF1806FA8BFA1F1C041B3
:104C5000BDE8704080F282804FF0000001F1C04159
:104C600001F0004170479EEA0C0F0CEA131518BFC3
:104C700095EA0C0F06D04FF0000081EA030E0EF00B
:104C8000004170BD00F01CF88900013E00F007B83B
:104C900000F009B84FEA430C5FEA5C5C08D081EA97
:104CA000030100F05BB84FEA410C5FEA5C5CF6D1AF
:104CB0004FF00000014970470000FF070000F87F37
:104CC0000EF1020E2EF0030E5EF8046B364205D490
:104CD000012A43EB030515F5001F12D8012841EB0B
:104CE000010C1CF5001F0CD80ED14FEAD17C15F534
:104CF000001F0CEB4C0C0CF1020C08BF4CEBD37CEE
:104D000004E04FF0080C01E04FEAD37C0CEB4C05BB
:104D100026FA05F606F00706B6F1040C06D20EEBED
:104D2000860CBDE870404CF0010C6047DFE80CF0E9
:104D3000090B02024FF000414FF00000A1F50021E5
:104D400070BD19461046012851EB010418BFD4F577
:104D5000001484BF002001F0004170BD0808A0F5D8
:104D600000114FEA3101704743004FEAD30C4FEA7C
:104D70003C0C43401FBF40070CF1605113F0FE4F45
:104D800070471CF0006F03D100200CF00041704709
:104D90000CF0004343EA507010B540EACC0000F03C
:104DA0000EF800BF000000924FEA0001FFF7D6BFE7
:104DB0004FF000414FF00000A1F5002170470EF1C7
:104DC000020E2EF0030E5EF8044B244204D44FEA88
:104DD0004102B2F17F4F11D84FEA4003B3F17F4F48
:104DE0000CD80ED14FEAD07CB2F17F4F0CEB4C0CBB
:104DF0000CF1020C08BF4CEBD17C04E04FF0080C26
:104E000001E04FEAD17C0CEB4C0324FA03F404F0EC
:104E10000704B4F1040C06D20EEB840CBDE810407C
:104E20004CF0010C6047DFE80CF0070802024FF07D
:104E30000040A0F5800010BD0846420018BFD2F126
:104E4000807288BF00F0004010BDFF2141EAD050C1
:104E5000C0057047FBF72ABC0CF00F03092B08BFF5
:104E6000082000F059800A2B0BD0082B18BF704780
:104E700008BF1CF0400F0AD04FF000004FF00001B7
:104E800070471CF0400F18BF4FF0004070471CF0F7
:104E9000100F08D020F0704300F07F4242EAD301A7
:104EA0004FEA4370704700F0604021F07F4242EAD1
:104EB000000201F07F4040EA727070474FF0FF0C33
:104EC0004CF4E06C1CEA11531CBF9CEA030C9445A3
:104ED000C2BFDA4201EB02517047002B0DD0BCF18A
:104EE000000F0FD0002A01F00041A4BF41F0E041C3
:104EF00041F07F614FF00000704701F000414FF03A
:104F00000000704750EA01334FF09B0C18BF4CF083
:104F1000806C7FF40FAE70471CF4801F11D01CF41E
:104F2000E02F03D06FEACC31490070474FF040507A
:104F3000EFF3008222F0704242EA000282F300881E
:104F400070474FF0000070470000000000000000B4
:104F50000000000000000000000000000000000051
:104F60000000000000000000000000000000000C35
:104F7000000C000C000C000C000C000C000C000CD1
:104F8000000C000C0000000C000C000000000000F1
:104F90000000001B001B001B001B001B000000008A
:104FA0000000000000000000000000000000000001
:104FB0000000000000008019801980198019C07F4E
:104FC000C07F80190033C07FC07F003300330033BF
:104FD00000330000000000000000001E003F80754C
:104FE00080650074003C001E0007800580658065B8
:104FF0008075003F001E00040004000000000070E7
:1050000000D840D8C0D880D900730006000C801B9F
:10501000C036C066C046C006800300000000000025
:105020000000001E003F003300330033001E000C60
:10503000C03CC066806380618063C03E801C00000D
:10504000000000000000000C000C000C000C000C24
:105050000000000000000000000000000000000050
:1050600000000000000000008000000100030006B6
:1050700000060004000C000C000C000C000C000CDE
:10508000000400060006000300018000002000105C
:105090000018000C000C00040006000600060006C4
:1050A000000600060004000C000C00180010002090
:1050B0000000000C002D003F001E00330000000027
:1050C00000000000000000000000000000000000E0
:1050D00000000000000000000000000C000C000CAC
:1050E000000CC0FFC0FF000C000C000C000C000006
:1050F00000000000000000000000000000000000B0
:10510000000000000000000000000000000000009F
:105110000000000C000C0004000400080000000067
:105120000000000000000000000000000000001E61
:10513000001E000000000000000000000000000051
:10514000000000000000000000000000000000005F
:1051500000000000000000000000000C000C000037
:10516000000000000000000300030003000600062A
:1051700000060006000C000C000C000C00180018C3
:1051800000180000000000000000001E003F003377
:10519000806180618061806D806D806180618061EF
:1051A0000033003F001E0000000000000000000669
:1051B000000E001E0036002600060006000600064F
:1051C00000060006000600060006000000000000C1
:1051D0000000001E003F8073806180618001000339
:1051E0000006000C001800300060807F807F000007
:1051F000000000000000001C003E0063006300038C
:10520000000E000E00038001800180618073003F6A
:10521000001E00000000000000000006000E000E4E
:10522000001E001E0016003600360066807F807F5C
:105230000006000600060000000000000000007FDD
:10524000007F006000600060006E007F806380016E
:10525000800180618073003F001E0000000000009C
:105260000000001E003F803380610060006E007F00
:1052700080738061806180618033003F001E000088
:10528000000000000000807F807F80010003000399
:1052900000060006000C000C000C000800180018A6
:1052A00000180000000000000000001E003F8063A6
:1052B000806180610021001E003F8061806180610B
:1052C0008061003F001E0000000000000000001E82
:1052D000003F00738061806180618073803F801D2A
:1052E000800180610073003F001E0000000000008C
:1052F00000000000000000000000000C000C000096
:1053000000000000000000000000000C000C000085
:10531000000000000000000000000000000000008D
:10532000000C000C00000000000000000000000C59
:10533000000C000400040008000000000000000051
:1053400080008003000E003800600038000E8003EB
:1053500080000000000000000000000000000000CD
:10536000000000000000807F807F00000000807F40
:10537000807F00000000000000000000000000002E
:10538000000000000000000000400070001C00074A
:1053900080010007001C00700040000000000000B9
:1053A000000000000000001F803FC071C060C0000E
:1053B000C00180030007000E000C000C0000000C70
:1053C000000C0000000000000000001E003F8031C3
:1053D00080718063806F806D806D806F80670060FA
:1053E0000032003E001C0000000000000000000E23
:1053F000000E001B001B001B001B80318031803F12
:10540000803F8031C060C060C060000000000000CC
:105410000000007C007E0063006300630063007E88
:10542000007E0063806180618063007F007E0000F9
:10543000000000000000001E003F8031806100601D
:105440000060006000600060006080618031003FAB
:10545000001E0000000000000000007C007F0063D0
:1054600080638061806180618061806180610063B0
:105470000063007E007C0000000000000000807FD0
:10548000807F0060006000600060007F007F00603F
:10549000006000600060807F807F000000000000EE
:1054A0000000807F807F0060006000600060007FFF
:1054B000007F00600060006000600060006000002D
:1054C000000000000000001E003F8031806100608D
:1054D0000060006080638063806180618031803F14
:1054E000001E0000000000000000806180618061FB
:1054F000806180618061807F807F80618061806168
:105500008061806180610000000000000000003FB9
:10551000003F000C000C000C000C000C000C000CF8
:10552000000C000C000C003F003F000000000000D9
:1055300000008001800180018001800180018001E4
:1055400080018001806180618073003F001E000047
:10555000000000000000C06080610063006600661B
:10556000006C0078007C00660066006380618061EA
:10557000C0600000000000000000006000600060EB
:10558000006000600060006000600060006000601B
:105590000060807F807F0000000000000000C0717C
:1055A000C071C07BC07AC06AC06AC06EC064C0608F
:1055B000C060C060C060C060C0600000000000004B
:1055C000000080718071807980798079806D806D34
:1055D000806D80658067806780678063806300007E
:1055E000000000000000001E003F00338061806169
:1055F0008061806180618061806180610033003FF3
:10560000001E0000000000000000007E007F80639C
:105610008061806180618063007F007E0060006047
:105620000060006000600000000000000000001E3C
:10563000003F0033806180618061806180618061B2
:10564000806580670033803F401E0000000000003E
:105650000000007E007F8063806180618063007F46
:10566000007E00660063006380618061C0600000AE
:10567000000000000000000E001F8031803100306B
:105680000038001E00078003806180618031003F88
:10569000001E0000000000000000C0FFC0FF000C62
:1056A000000C000C000C000C000C000C000C000C9A
:1056B000000C000C000C00000000000000008061E5
:1056C00080618061806180618061806180618061D2
:1056D000806180618073003F001E000000000000B8
:1056E0000000C060C060C060803180318031001B2C
:1056F000001B001B001B000E000E000E000400002B
:10570000000000000000C0C0C0C0C0C0C0C0C0C019
:10571000C0CC804C804C805E80528052807380610F
:1057200080610000000000000000C0C08060806157
:105730000033003B001E000C000C001E001F003B4D
:1057400080718061C0C00000000000000000C0C087
:105750008061806100330033001E001E000C000CCD
:10576000000C000C000C000C000C000000000000FD
:105770000000803F803F8001000300030006000C12
:10578000000C0018001800300060807F807F00004F
:1057900000000000000F000F000C000C000C000CBB
:1057A000000C000C000C000C000C000C000C000C99
:1057B000000C000C000F000F00000018001800186B
:1057C000000C000C000C000C000600060006000691
:1057D000000300030003000000000000001E001E84
:1057E0000006000600060006000600060006000689
:1057F000000600060006000600060006001E001E49
:105800000000000C000C001E001200330033806109
:1058100080610000000000000000000000000000A7
:105820000000000000000000000000000000000078
:105830000000000000000000000000000000000068
:1058400000000000E0FF0000000000380018000C1D
:105850000000000000000000000000000000000048
:105860000000000000000000000000000000000038
:10587000000000000000001F803F80618001801F49
:10588000803F80618063807FC0380000000000009E
:1058900000000060006000600060006E007F8073A8
:1058A00080618061806180618073007F006E000094
:1058B0000000000000000000000000000000001ECA
:1058C000003F807380610060006080618073003FF2
:1058D000001E000000000000000080018001800127
:1058E0008001801D803F8073806180618061806164
:1058F0008073803F801D0000000000000000000059
:10590000000000000000001E003F00738061807FE7
:10591000807F00608071003F001E000000000000DA
:105920000000C007C00F000C000C807F807F000CBF
:10593000000C000C000C000C000C000C000C000013
:10594000000000000000000000000000801D803FFB
:10595000807380618061806180618073803F801D81
:1059600080018063007F003E0000006000600060F6
:105970000060006F807F80718061806180618061E4
:10598000806180618061000000000000000000066E
:10599000000600000000003E003E00060006000673
:1059A00000060006000600060006000000000000D9
:1059B0000006000600000000003E003E0006000653
:1059C0000006000600060006000600060006004667
:1059D000007E003C000000600060006000608061AC
:1059E00000630066006C007C0076006300638061E9
:1059F000C0600000000000000000003E003E000605
:105A00000006000600060006000600060006000666
:105A10000006000600060000000000000000000074
:105A200000000000000080DDC0FFC0CEC0CCC0CCB4
:105A3000C0CCC0CCC0CCC0CCC0CC000000000000AA
:105A400000000000000000000000006F807F8071F7
:105A5000806180618061806180618061806100001F
:105A60000000000000000000000000000000001E18
:105A7000003F807380618061806180618073003F3E
:105A8000001E0000000000000000000000000000F8
:105A9000006E007F807380618061806180618073AF
:105AA000007F006E00600060006000600000000089
:105AB00000000000801D803F8073806180618061F4
:105AC00080618073803F801D8001800180018001A2
:105AD000000000000000000000000067803F003967
